:020000040800F2
:10000000484D0020E9020008532A00088F25000807
:10001000512A00084305000879320008000000005A
:10002000000000000000000000000000290200089D
:10003000450700080000000085020008B52A0008F6
:100040000303000803030008030300080303000878
:100050000303000803030008030300080303000868
:100060000303000803030008030300080303000858
:100070005D050008030300080303000803030008EC
:100080000303000803030008030300080303000838
:1000900045050008030300080303000803030008E4
:1000A0000303000803030008030300080303000818
:1000B0000303000803030008030300080303000808
:1000C00003030008030300080303000803030008F8
:1000D000030300080303000803030008C5310008F8
:1000E00003030008030300080303000803030008D8
:1000F00003030008030300080303000803030008C8
:1001000003030008030300080303000803030008B7
:1001100003030008030300080303000803030008A7
:10012000030300080303000869050008030300082F
:100130000303000803030008030300080303000887
:100140005105000803030008030300080303000827
:100150000303000803030008030300080303000867
:100160000303000803030008030300080303000857
:100170000303000803030008030300080000000055
:10018000030300080303000800F002F800F03CF845
:100190000AA090E8000C82448344AAF10107DA45E2
:1001A00001D100F031F8AFF2090EBAE80F0013F0F8
:1001B000010F18BFFB1A43F001031847F04E00006F
:1001C000104F0000103A24BF78C878C1FAD85207FF
:1001D00024BF30C830C144BF04680C6070470000C1
:1001E0000023002400250026103A28BF78C1FBD840
:1001F000520728BF30C148BF0B6070471FB504F0DD
:1002000016FF1FBD10B510BD00F061F91146FFF7D4
:10021000F5FF03F0ADFC00F07FF903B4FFF7F2FF48
:1002200003BC00F087F900002C4B19680868B0E89F
:10023000F04F80F30988BFF36F8F4FF0000080F319
:10024000118870470000000008480068006880F3CB
:1002500008884FF0000080F3148862B661B6BFF3DF
:100260004F8FBFF36F8F00DF00BF00BF08ED00E0CE
:10027000DFF80C00016841F470010160704700BFB5
:1002800088ED00E0EFF30980BFF36F8F134B1A681E
:100290001EF0100F08BF20ED108A20E9F04F10600B
:1002A00009B44FF0500080F31188BFF34F8FBFF3B4
:1002B0006F8F04F01BF84FF0000080F3118809BC29
:1002C00019680868B0E8F04F1EF0100F08BFB0ECD6
:1002D000108A80F30988BFF36F8F70479C0000205D
:1002E000EFF3058070470000094880470948004740
:1002F000FEE7FEE7FEE7FEE7FEE7FEE7FEE7FEE7D6
:10030000FEE7FEE704480549054A064B7047000032
:10031000612B00088901000848470020484D002053
:10032000484900204849002053EA020C00F0698047
:100330002DE9F04B4FF00006002B1FBFB3FA83F5F9
:1003400003FA05F424FA05F65E4012BF1643B2FA2A
:1003500082F502FA05F4C5F120051EBF22FA05FC5C
:1003600044EA0C04203556EA044C4FEA144418BF02
:10037000641C4FF000084FF00009904271EB030C31
:1003800039D3002919BFB1FA81F701FA07F6B0FA9B
:1003900080F700FA07F6C7F120071EBF20FA07FC16
:1003A00046EA0C062037B6FBF4FCA7EB0507103F26
:1003B00007F01F0BCBF120060CFA0BFB2CFA06F60C
:1003C00044BFB3460026202FA4BF5E464FF0000B6B
:1003D0005BEA060C08BF4FF0010B19EB0B09ABFBF6
:1003E000027C48EB0608C01B06FB02CC0BFB03CCCF
:1003F00071EB0C01C1E70B46024641464846BDE899
:10040000F08B13B54FF000004FF00001AFF3008008
:10041000BDE81C40704710B5203AC0F00B80B1E831
:100420001850203AA0E81850B1E81850A0E8185029
:10043000BFF4F5AF5FEA027C24BFB1E81850A0E832
:10044000185044BF18C918C0BDE810405FEA827C4C
:1004500024BF51F8043B40F8043B08BF7047D20763
:1004600028BF31F8023B48BF11F8012B28BF20F804
:10047000023B48BF00F8012B70474FF0000200B567
:10048000134694469646203922BFA0E80C50A0E8B7
:100490000C50B1F12001BFF4F7AF090728BFA0E865
:1004A0000C5048BF0CC05DF804EB890028BF40F831
:1004B000042B08BF704748BF20F8022B11F0804F73
:1004C00018BF00F8012B704770477047704775469A
:1004D00000F02CF8AE4605006946534620F00700B0
:1004E000854618B020B5FFF70DFFBDE820404FF05E
:1004F00000064FF000074FF000084FF0000B21F00E
:100500000701AC46ACE8C009ACE8C009ACE8C009DA
:10051000ACE8C0098D46704710B50446AFF30080C3
:100520002046BDE81040FFF778BE00000048704745
:10053000E846002001491820ABBEFEE72600020075
:100540007047FEE7014800F0B2BA000058030020EF
:10055000014800F0ACBA000080030020014800F020
:10056000A9BE00001C050020014800F0A3BE000049
:10057000BC04002001681823CAB2103AB2FBF3F29F
:10058000054B6FF30901032A9B5CC36500D9091D64
:1005900081650846704700007C50000810B5014690
:1005A00000208B698A6A4FF0C07453B1B3F5005FC5
:1005B00015D072B1012A0CD0022A0AD0032A09D11F
:1005C00004E01AB1012A06D0022A03D1C96AC9017E
:1005D00000D5012010BDC96AA142FAD010BD002A81
:1005E000F7D0012AF2D0022AF3D0032AF3D010BDAB
:1005F00030B50468256825F48025256004686360AB
:100600008368402B036803D099600068C26030BDE6
:100610009A600068C16030BD10B53F4C2DED048B71
:1006200094F948109FED3D8BB1B120460129C06C73
:1006300002D0022907D00FE004F088FC53EC182BFD
:1006400004F072F805E004F081FC53EC182B04F080
:1006500093FB04F037F8E0643249E06C884202DB37
:100660009FED310A07E03149884202D894ED130A20
:1006700003E09FED2F0A84ED130A9FED2E9AF7EE0B
:10068000001AB0EE001AF0EE490A0221B0EE602A1C
:10069000294801F07DFF052000F07EFF94F9490014
:1006A000B0B1012802D0022808D011E0206D04F07A
:1006B0004DFC53EC182B04F037F806E0206D04F0E5
:1006C00045FC53EC182B04F057FB03F0FBFF2065AF
:1006D0001A49206D884202DDB0EE0C0A07E0184985
:1006E000884202D894ED140A03E0B8EE0C0A84EDB7
:1006F000140AF0EE490AF7EE001AB0EE602AB0EEE6
:10070000001A04210C4801F043FFBDEC048B0520C6
:10071000BDE8104000F040BF300700207B14AE471A
:10072000E17A943FC3F54840C3F54840C3F548C05B
:10073000C3F548C0000000005803002000006040DE
:10074000000060C0704700002DE9F047814608A80E
:1007500090E8F0111648016000218160C160082115
:100760000161027643768476C5760677477780F80E
:100770001E8000F1180280F81FC0014601231446B4
:10078000484600F02BF800280FD0022322460849E3
:10079000484600F023F8002807D022464846BDE826
:1007A000F0470423024900F019B8BDE8F0870000C3
:1007B000D809002072B6FEE790F82020012A07D061
:1007C000022A05D0416A41F480214162012070472C
:1007D000006842690A43426100207047F0B590F812
:1007E00020500468A468012D05D0022D03D0416A71
:1007F00041F480215DE014F0406F01D1E50055D552
:10080000C4F30164022C03D9416A41F4000150E0B1
:100810000125A5401D608D684FF4C0739DB1CE6861
:1008200035434E6845EAC605066803EB0417F551E3
:100830004FF4C275076805EB04150E697E51097DFA
:10084000012905D009E00E88CD6845EA4655EBE759
:1008500001684E5946F480764E511179D579567912
:1008600041EA056195792D0445EA062529434FF4AF
:10087000C676056806EB0416A9511178D57841EAC9
:100880000561957852782D0445EA022211434FF410
:10089000C475026805EB04155151006803EB04119F
:1008A000425842F0010242500020F0BD416A41F43A
:1008B000001141620120F0BD10B590F82020012AFE
:1008C00007D0022A05D0416A41F48021416201200B
:1008D00010BD3B48D0F8002242F00102C0F80022CF
:1008E000D0F8002222F47C52C0F80022D0F8002276
:1008F0004B6A42EA0322C0F800220A7D02F01F037D
:1009000001229A40D0F81C329343C0F81C32CB69C4
:10091000B3B9D0F80C329343C0F80C328C894B68D1
:1009200064F31F434C6900EBC404C4F840320C89E3
:100930000B6864F31F434C6900EBC404C4F84432F1
:10094000CB69012B16D1D0F80C321343C0F80C320E
:100950000C884B6864F31F434C6900EBC404C4F873
:1009600040320C89CB6864F31F434C6900EBC4042C
:10097000C4F844328B69002BD0F804320ED01343F4
:10098000C0F804320B69002BD0F8143208D013439E
:10099000C0F81432096A012904D008E09343EFE754
:1009A0009343F5E7D0F81C121143C0F81C12D0F89D
:1009B000001221F00101C0F80012002010BD00005B
:1009C00000640040704730B590F82040012C05D0FD
:1009D000022C03D0416A41F480215DE004680029C3
:1009E00055D02469A40754D04FF4D874056804EB9B
:1009F00001142D5915F00405956005682D594ED048
:100A0000ED08556005682C5904F00204D4604FF4D9
:100A1000DA74056804EB01142D5905F00F05156112
:100A200005682D59C5F30725956105682C59240CD7
:100A300054614FF4DC72046802EB0112A4581C707C
:100A40000468A458240A5C700468A458240C9C70A0
:100A50000468A258120EDA704FF4DE72046802EBDA
:100A60000112A4581C710468A458240A5C7104681B
:100A7000A458240C9C710468A258120EDA71006804
:100A800081B1016941F020010161002030BDE468BD
:100A9000A8E7416A41F400114162012030BD6D0DAB
:100AA0001560AFE7C16841F02001C160EDE72DE9B5
:100AB000F05F0546006800244669D0F80490876816
:100AC000D0F80CB0D0F810A0D0F81880F10748D0BA
:100AD000F90714D001218160B80703D5284600F03A
:100AE000E2FB0CE0780702D54FF4006407E038071A
:100AF00002D54FF4805402E0284600F0D3FBF805FD
:100B000016D529684FF480708860B80503D528464B
:100B100000F0CBFB0CE0780502D544F4005407E06C
:100B2000380502D544F4804402E0284600F0BCFBBE
:100B3000F80316D529684FF480308860B80303D5D0
:100B4000284600F0B4FB0CE0780302D544F40044DE
:100B500007E0380302D544F4803402E0284600F070
:100B6000A5FB300707D55FEACB6004D529681020C4
:100B700044F40074C86070074FF0080707D55FEAB7
:100B80000B7004D52868C760284600F099F9B007B3
:100B900006D52868C068800702D0284600F092F980
:100BA000700607D55FEACA6004D52968102044F4AE
:100BB00080640861B00607D55FEA0A7004D528682A
:100BC0000761284600F03EFBF00606D5286800695C
:100BD000800702D0284600F036FBB00308D55FEA54
:100BE000C96005D5296810204860284600F02CFB14
:100BF000F00307D55FEA097004D5286847602846E6
:100C000000F056FB300446D55FEA497040D5F00548
:100C100004D55FEAC87001D044F00104B00504D5E2
:100C20005FEA887001D544F00204700504D55FEADC
:100C3000487001D544F00404300529D518F0700F30
:100C400026D008F07000402815D006DC102809D006
:100C500020280AD0302816D10AE050280ED060286B
:100C600011D10EE044F008040DE044F010040AE055
:100C700044F0200407E044F0400404E044F0800421
:100C800001E044F480742868816921F07001816179
:100C9000296804204860002C05D0686A20436862F7
:100CA0002846FFF78FFEBDE8F09F70B5040003D023
:100CB00094F8200010B104E0012070BD204600F03F
:100CC00081F82068016841F00101016000F074FDC5
:100CD0000546052604E000F06FFD401B0A2811D8E8
:100CE00020684068C007F6D02068016821F0020142
:100CF000016000F061FD05460BE000F05DFD401B6A
:100D00000A2806D9606A40F40030606284F82060E6
:100D1000D2E7206840688007EFD4207E0128206851
:100D200001683DD021F080010160607E01282068CB
:100D3000016838D021F040010160A07E01282068C0
:100D4000016833D021F020010160E07E0128206895
:100D500001682ED041F010010160207F0128206839
:100D6000016829D021F008010160607F0128206816
:100D7000016824D021F004010160D4E90201084394
:100D8000D4E90412114308436168491E08432168ED
:100D9000C86100206062012084F82000002070BD3E
:100DA00041F08001C0E741F04001C5E741F020017A
:100DB000CAE721F01001CFE741F00801D4E741F084
:100DC0000401D9E7F0B587B0044614216846FFF75F
:100DD00054FB364B3648DFF8D0E01968D4F800C031
:100DE000334A03250226092710300024491CF44504
:100DF00022D11960012907D1016841F00071016019
:100E0000006800F000700590106840F00800106065
:100E10001068CDE9005600F00800CDE9047069467D
:100E20002448CDE9024500F0C9FB00220521142029
:100E300000F034FD142032E0DFF87CE0F44530D1DE
:100E4000D0F800C04CF0806CC0F800C0D0F800C0F2
:100E500001290CF0806CCDF814C0196007D101682D
:100E600041F000710160006800F0007005901068AA
:100E700040F002001060106802AB00F00200059024
:100E80006020CDE9000683E8B00069460B4800F019
:100E900095FB00220521402000F000FD402000F0DD
:100EA000EFFC07B0F0BD0000006400400800002027
:100EB00030380240000C024000680040000402404C
:100EC000704700002DE9F0438146D848D84C2DEDFD
:100ED000028B89B0B0F90210B0F9000081420BD04A
:100EE000012909D10020014600EB400204EB8202F7
:100EF000401C51810828F7DB6B4602AA00214846B6
:100F0000FFF761FDC94DCB4941F28836AD1FC6F1EF
:100F1000000889457ED19FEDC88ADFEDC88A029816
:100F2000012837D1C24FBDF801008C3740BA386074
:100F30009DF80310F2EE090A0A019DF80410BAEEBA
:100F4000090A42EA11127A609DF8052001F00F01AA
:100F500042EA0121B960102103F0C7F8BDEEC00AD2
:100F60000C21F0EE480A87ED030AB0EE680A7868B3
:100F700003F0BBF8BDEEC00A0C21F3EE020A87EDC8
:100F8000040ABBEE020AB86803F0AFF8BDEEC00A6F
:100F900087ED050A0298022837D1A54FBDF8010058
:100FA000B43740BA38609DF80310F2EE090A0A011E
:100FB0009DF80410BAEE090A42EA11127A609DF80F
:100FC000052001F00F0142EA0121B960102103F070
:100FD0008CF8BDEEC00A0C21F0EE480A87ED030A3A
:100FE000B0EE680A786803F080F8BDEEC00A0C2104
:100FF000F3EE020A87ED040ABBEE020AB86803F0BA
:1010000074F8BDEEC00A87ED050A0298A0F50071DC
:10101000013900E02BE006D0012929D0022927D090
:1010200003293FD124E0042028708149B4F93020FD
:1010300001F130000A87BDF8001049BA2186BDF8D9
:101040000230891A5BBA4380BDF80430B1425BBA02
:1010500083809DF80630837103DD754A528F521EDE
:10106000428141451EDA7249498F491C418119E08C
:10107000C01CC0B2687000EB400104EB810034F882
:1010800021200281BDF8002052BA24F82120BDF8A9
:10109000021049BA4180BDF8041049BA81809DF818
:1010A00006108171664989457ED10299A1F50070CB
:1010B00001382AD0012856D0022802D0032873D143
:1010C00081E00220A8705A4AB4F9183002F11800E1
:1010D0001384BDF8002052BA2283BDF80270D21AE0
:1010E0007FBA4780BDF80470B2427FBA87809DF80E
:1010F0000670877103DD4E4B5B8C5B1E438142455E
:1011000003DA4B4A528C521C4281481EC0B2E8702E
:1011100000EB400204EB820034F822300381BDF87A
:1011200000305BBA24F82230BDF802305BBA43804D
:10113000BDF804305BBA83809DF80630837134F8C3
:101140002230B0F90870DB1BB34202DD43895B1E1D
:10115000438134F82220B0F90830D31A434502DA2B
:101160004289521C4281481EC0B2287100EB4002E5
:1011700004EB820034F822300381BDF800305BBA02
:1011800024F82230BDF802305BBA4380BDF8043049
:101190005BBA83809DF80630837134F82230B0F951
:1011A0000870DB1BB34200E03BE002DD43895B1EBD
:1011B000438134F82220B0F90830D31A434502DACB
:1011C0004289521C4281491EC8B2687100EB40013D
:1011D00004EB810034F821200281BDF8002052BACE
:1011E00024F82120BDF8022052BA4280BDF8042024
:1011F00052BA82809DF80620827134F82120B0F91D
:101200000830D21AB24202DD4289521E428134F8BD
:101210002110B0F908208A1A424502DA4189491C96
:10122000418109B0BDEC028BBDE8F08314000020C1
:10123000040600205803002000003442000034C29D
:1012400080030020704770477047000070B5044667
:1012500090F82000012804D0606A40F40020606209
:1012600018E0022084F820002068016821F00101C4
:10127000016000F0A1FA05460EE000BF00F09CFA04
:10128000401B0A2808D9606A40F4003060620520DB
:1012900084F82000012070BD20684068C007EDD1AF
:1012A000606270BD70477047704770477047704705
:1012B000704700002DE9F84304464FF00009CDF8CF
:1012C000009063484FF41651A56D0068B0FBF1F72C
:1012D0002E6894F85C10082000FA01F131420FD01A
:1012E00021680A6852070BD50A6822F004020A60D6
:1012F00094F85C108840A860606D40F00100606563
:1013000094F85C104FF0010808FA01F0304208D060
:1013100021684969090604D5A860606D40F00200A3
:10132000606594F85C1004208840304208D0216841
:101330000968890704D5A860606D40F00400606505
:1013400094F85C1010208840304218D02168096859
:10135000090714D5A86020680168490304D500680E
:10136000000308D5A16C07E00168C90503D4016832
:1013700021F008010160216C09B12046884794F8EA
:101380005C1020208840304231D021680968C906AD
:101390002DD5A86094F8350005282068016806D08E
:1013A000490347D5006800031DD4616C1CE021F09F
:1013B000160101602068416921F080014161206CC3
:1013C00008B9A06C20B12068016821F00801016013
:1013D00094F85C103F208840A86084F8358084F839
:1013E0003490216D1FE0E16B09B120468847606DA4
:1013F00000282BD0606DC00714D0052084F835007C
:101400002068016821F0010101600098401C0090F3
:10141000B84203D820680068C007F6D184F8358048
:1014200084F83490E16C002910D001B02046BDE86A
:10143000F04308470168C905D5D4016821F01001BF
:10144000016084F8358084F83490CCE7BDE8F883F7
:10145000980000202DE9F041044600F0ADF9064661
:101460005CB1022084F83500002584F834502068EF
:10147000016821F0010101600DE00120BDE8F0816B
:1014800000F09AF9801B052805D92020606503200B
:1014900084F83500F2E720680068C007F0D12268C0
:1014A000116820480140D4E901031843D4E9033608
:1014B0003343184363691843A3691843E369184326
:1014C000236A18430843616A042903D1D4E90B1342
:1014D00019430843106020684069666A20F00701DC
:1014E00030460E43012704280CD1A06A0643E06A67
:1014F00040B12046FFF752F820B14020606584F8E3
:101500003570BAE7206846612046FFF733F894F853
:101510005C203F2191408160656584F83570002032
:10152000ACE700003F8010F02DE9F0410446866DE5
:1015300090F83400002501280DD0012084F83400F3
:1015400094F835700020012F07D084F8340002256C
:101550002846BDE8F0810220FBE7022784F83570B9
:1015600060652046FFF744F894F85C103F208840FF
:10157000B0602068016841F016010160206C20B164
:101580002068016841F0080101602068016841F0AD
:1015900001010160DCE7000070B5044600F00CF9C1
:1015A0000546601C02D004480078044400F004F9A9
:1015B000401BA042FAD370BD8C0000202DE9F84FEB
:1015C000DFF8BCA1002201250AF1040B03264FF02D
:1015D0000F090BF1040E00BF0B6805FA02F423405B
:1015E000A34270D10F7907F00307012F01D0022F1A
:1015F00016D187684FEA420806FA08FC27EA0C076A
:10160000D1F80CC00CFA08FC4CEA070CC0F808C072
:101610004768A7430C79C4F3001494403C434460EA
:101620000C79E443A4070AD0C4684FEA420C06FAD6
:101630000CF7BC438F6807FA0CF72743C7600C7997
:1016400004F00304022C12D1D40800EB840CDCF863
:1016500020405707FF0E09FA07F824EA0804D1F8DA
:10166000108008FA07F848EA0408CCF820800468DB
:101670004FEA420C06FA0CF7BC430F7907F0030758
:1016800007FA0CF7274307604C6814F4403F70D00A
:101690003C4C276847F480472760246822F0030702
:1016A00004F480440094384C07EB040CDCF8084840
:1016B00097074FEA177809FA08F7BC43334FB84247
:1016C00002D1002724E054E0314FB84201D1012774
:1016D0001EE0304FB84201D1022719E02E4FB84228
:1016E00001D1032714E02D4FB84201D104270FE0A8
:1016F0002B4FB84201D105270AE02A4FB84201D149
:10170000062705E0284FB84201D1072700E0082747
:1017100007FA08F72743CCF80878DAF8004057466C
:10172000D1F804C09C435FEACC3C00D51C433C602C
:10173000DBF800405F46D1F804C09C435FEA8C3C74
:1017400000D51C433C60DEF800407746D1F804C069
:101750009C435FEACC2C00D51C433C60084F0C37FF
:101760003C68D1F804C09C435FEA8C2C00D51C4334
:101770003C60521C102AFFF42FAFBDE8F88F000028
:10178000003C01404438024000300140000002406B
:101790000004024000080240000C02400010024019
:1017A0000014024000180240001C02400AB181618E
:1017B00070470904FBE7000001488068704700009B
:1017C0008C000020024881680278114481607047D3
:1017D0008C0000200B4810B5016841F400710160D5
:1017E000016841F480610160016841F48071016029
:1017F000032000F073F80F2000F006F800F024F842
:10180000002010BD003C024070B50D4D04464FF461
:101810007A712878B1FBF0F00A490968B1FBF0F061
:1018200000F010FB48B9102C07D200222146501EB0
:1018300000F034F800206C6070BD012070BD000025
:101840008C000020980000200C4882B0016841F410
:1018500080410160006800F4804000900748001F4C
:10186000016841F0805101600068002200F0805062
:1018700000900F21901E02B000F010B844380240D2
:10188000002809DB00F01F0201219140400980007F
:1018900000F1E020C0F8001170470000F0B40E4BDA
:1018A0001B680C46C3F30223C3F10705042D00D9BE
:1018B0000425191D072901D2002300E0DB1E0126A3
:1018C00006FA05F1491E214099409E40761E1640B9
:1018D0003143F0BC01F0D1BC0CED00E0064900F052
:1018E000070208684FF6FF03184040EA0220034A47
:1018F00010430860704700000CED00E00000FA059E
:101900002DE9F0470E46050065D0DFF81481D8F8C0
:101910000000F7B200F00700B04207D288F800706C
:10192000D8F8000000F00700B04254D128683D4CC0
:10193000810712D5400703D5206840F4E0502060AD
:101940002878000703D5206840F4604020602068B4
:10195000A96820F0F000084320602878C0072DD047
:10196000304968680839012812D0022813D00328AA
:1019700011D00968890700292DDA216821F00301B7
:1019800001432160FFF718FF814641F2883A0EE0DB
:1019900009688903EFE709688901ECE7FFF70CFFA5
:1019A000A0EB0901514502D90320BDE8F08720686A
:1019B000696800F00C00B0EB810FEFD1D8F800108F
:1019C000404601F00701B14207D90770006800F0F6
:1019D0000700B04201D00120E7E72878400705D58D
:1019E0002068E96820F4E050084320602878000768
:1019F00006D52068296920F4604040EAC1002060D3
:101A000000F038F82168084AC1F30311515CC8405E
:101A10000649086006480068FFF7F6FE0020C4E7A4
:101A2000003C024008380240845000089800002022
:101A3000900000200448054900680968044AC1F381
:101A40008221515CC840704798000020083802404D
:101A5000945000080448054900680968044AC1F325
:101A60004231515CC840704798000020083802405D
:101A700094500008154810B5006810F00C02144886
:101A800013D01449042A0FD0082A0ED10F4C241F5A
:101A90002268236802F03F025B0207D52068C0F38A
:101AA0008810A0FB010106E0084610BD2168C1F3C3
:101AB0008811A1FB00010023FEF736FC2168C1F369
:101AC0000141491C4900B0FBF1F010BD083802404B
:101AD0000024F400001BB7002DE9F84F04006ED07D
:101AE0002078DFF84C93C007A9F104054AD009F12A
:101AF00004000168C1F38101012908D00068C0F326
:101B0000810002280AD1D9F80000400206D52868D1
:101B1000800337D560680028E1D033E06068B0F515
:101B2000803F10D0B0F5A02F286810D020F480306E
:101B30002860286820F4802028606068A8B1FFF73A
:101B40003BFE06460DE0286840F48030F4E740F4A0
:101B500080202860F7E700BFFFF72EFE801B642877
:101B600073D828688003F7D50CE0FFF725FE0646FA
:101B700005E000BFFFF720FE801B6428F0D828682E
:101B80008003F7D42078DFF8AC8280074FF0000A9A
:101B90003ED5A748001D016811F00C0F08D0006861
:101BA000C0F3810002280BD1D9F80000400207D40D
:101BB0002868800716D5E068012800D112E033E1DB
:101BC000E068B8B10120C8F80000FFF7F5FD06464F
:101BD00005E000BFFFF7F0FD801B0228C0D8286891
:101BE0008007F7D52868216920F0F80040EAC10095
:101BF00028600DE0C8F800A0FFF7DEFD064604E00F
:101C0000FFF7DAFD801B02281FD828688007F7D469
:101C10002078000722D5864F87486169703771B1F7
:101C200001210160FFF7C8FD064604E0FFF7C4FD8F
:101C3000801B022809D838688007F7D50EE0C0F865
:101C400000A0FFF7B9FD064605E082E0FFF7B4FD0E
:101C5000801B02287DD838688007F7D42078400799
:101C600068D5DFF8CCB100270BF13C0BDBF80000A6
:101C7000C0000BD4DBF8001041F08051CBF800100D
:101C8000DBF80000012700F0805000906B4E3068B8
:101C9000C00510D4306840F480703060FFF78CFDD0
:101CA000009005E0FFF788FD0099401A022850D8FF
:101CB0003068C005F6D55E4EA0686C3601280FD09E
:101CC0000528306810D020F001003060306820F026
:101CD00004003060A068B8B1FFF76EFD00900FE01F
:101CE000306840F00100F4E740F004003060F7E7AE
:101CF000FFF762FD0099411A41F28830814266D8AF
:101D000030688007F4D50EE0FFF756FD009007E03D
:101D1000FFF752FD0099411A41F28830814256D8AE
:101D200030688007F4D42FB1DBF8001021F0805127
:101D3000CBF80010A069C8B33D49091D0968C1F37B
:101D4000810102294AD00228504607D0C8F8600015
:101D500000E03CE0FFF730FD04463BE04746C8F8B2
:101D60006000FFF729FD064605E000BFFFF724FDF0
:101D7000801B02282BD828688001F7D4D4E90701FA
:101D80000843A16A2E4A490802EB0141626A41EA0E
:101D90008211084394F82C1040EA0161C9F8001040
:101DA00001203866FFF708FD044606E03EE000BF6C
:101DB000FFF702FD001B022809D828688001F7D52B
:101DC00034E000BFFFF7F8FC001B022802D9032013
:101DD000BDE8F88F28688001F4D427E00128F7D007
:101DE000D9F80000E26900F4800191421CD1226A16
:101DF00000F03F01914217D147F6C071626A01407D
:101E0000B1EB821F10D1A26A4FF0FF3300F44031D2
:101E100003EB5202B1EB024F06D194F82C1000F004
:101E20007060B0EB016F01D00120D1E70020CFE757
:101E30000438024000004742800E474200700040D4
:101E40000000FFFF10B5401EB0F1807F01D30120DC
:101E500010BD4FF0E02460610F21601701F00DFA12
:101E60000020A06107202061002010BD10B590F86F
:101E70003C20012A22D0012280F83C20CA688C68CC
:101E800022F4407222434C6822F4806222430C68A0
:101E900022F4006222430C6922F4805222434C69EE
:101EA00022F400522243C969002322F480420A43EB
:101EB00001684A6480F83C30002010BD022010BD4B
:101EC00070B590F83C20012A32D0012480F83C40C3
:101ED000022280F83D2003685A689D6822F070064F
:101EE0000A6832435A60134B02689A4214D0B2F126
:101EF000804F11D0104B9A420ED0104B9A420BD00B
:101F00000F4B9A4208D00F4B9A4205D00E4B9A4283
:101F100002D00E4B9A4204D1496825F08003194340
:101F2000916080F83D40002180F83C10084670BD6B
:101F3000022070BD00000140000400400008004085
:101F4000000C004000040140004001400018004027
:101F500010B5040003D094F83D0010B107E0012053
:101F600010BD002084F83C00204600F01FF802203D
:101F700084F83D00211D206800F0FAFD012084F85E
:101F8000460084F83E0084F83F0084F8400084F85E
:101F9000410084F8420084F8430084F8440084F847
:101FA000450084F83D00002010BD000008B5006821
:101FB0000649884208D10648016841F001010160E4
:101FC000006800F00100009008BD00000000014022
:101FD0004438024090F83D10012901D0012070479B
:101FE000022180F83D1000681149884214D0B0F1F8
:101FF000804F11D00F4988420ED00F4988420BD034
:102000000E49884208D00E49884205D00D498842C1
:1020100002D00D49884204D1816801F007010629E8
:1020200003D0016841F00101016000207047000009
:10203000000001400004004000080040000C004087
:1020400000040140004001400018004070B5044603
:1020500090F83C000025012817D0012684F83C6048
:10206000022084F83D002068826822F0770222F482
:102070007F4282600868502838D00DDC20284FD07D
:1020800005DC90B3102811D14AE0022070BD302841
:1020900046D040280AD13BE060282FD070280DD0D0
:1020A000B0F5805F03D0B0F5005F12D0012584F851
:1020B0003D60002084F83C00284670BDCB68D1E923
:1020C0000121206800F0C5FD2068816841F077019A
:1020D00009E0CB68D1E90121206800F0BAFD206851
:1020E000816841F480418160E1E719E0CA6849688C
:1020F000206800F083FE5021206806E0CA68496825
:10210000206800F08CFE6021206800F0ACFDCEE776
:10211000CA684968206800F071FE40212068F4E731
:10212000226801461046F0E710B586B00446142137
:102130006846FEF7A2F90E492068884216D10D487C
:102140000021026842F010020260006800F01000F6
:1021500005904FF4206000900220CDE9010101209C
:10216000CDE9031069460448FFF728FA06B010BD10
:1021700000000140303802400010024070B50446B3
:1021800090F83C0000260D4601280FD0012084F86D
:102190003C006AB1042A1DD0082A2FD00C2A3FD057
:1021A0000126002084F83C00304670BD022070BD3E
:1021B000206800F061FD2068816941F008018161BB
:1021C0002068816921F004018161206881692A69A0
:1021D000114311E0206800F07FFD2068816941F41F
:1021E000006181612068816921F4806181612068DA
:1021F00081692A6941EA02218161D2E7206800F001
:10220000A1FD2068C16941F00801C1612068C16970
:1022100021F00401C1612068C1692A69114311E0FC
:10222000206800F0C3FD2068C16941F40061C1610C
:102230002068C16921F48061C1612068C1692A698F
:1022400041EA0221C161ACE710B5040003D094F863
:102250003D0010B107E0012010BD002084F83C00D3
:10226000204600F01EF8022084F83D00211D206861
:1022700000F07EFC012084F8460084F83E0084F8DB
:102280003F0084F8400084F8410084F8420084F85C
:10229000430084F8440084F8450084F83D000020A1
:1022A00010BD704710B50446022249B104290ED072
:1022B000082913D094F84100012816D0012010BD40
:1022C00094F83E000128F9D184F83E200FE094F8FC
:1022D0003F000128F2D184F83F2008E094F8400044
:1022E0000128EBD184F8402001E084F8412001224C
:1022F000206800F0A1FC16492068164A884201D0E7
:10230000904203D1436C43F4004343642068884205
:1023100013D0B0F1804F10D00F4988420DD00F4933
:1023200088420AD00E49884207D0904205D00D4914
:10233000884202D00C49884204D1816801F007012B
:10234000062903D0016841F001010160002010BDA1
:10235000000001400004014000040040000800406B
:10236000000C0040004001400018004070477047DA
:1023700070B5040004D094F83D00002510B106E0CB
:10238000012070BD84F83C50204600F023F8242042
:1023900084F83D002068C16821F40051C1602046E6
:1023A00000F0F8FD2068016921F490410161206886
:1023B000416921F02A0141612068C16841F400515E
:1023C000C1602564202084F83D0084F83E00002090
:1023D00070BD00002DE9F04F87B006461421684615
:1023E000FEF74BF85448DFF84CC1336800245249DB
:1023F00014380225032707224FF000694FF4806A42
:102400004FF4403B63453FD10B6843F010030B6032
:10241000096801F010010591016841F002010160B5
:10242000016801F002010591016841F001010160BC
:10243000006802AB00F0010005908020CDE90005A6
:10244000904683E8900169463C48FFF7B7F82802B8
:10245000CDE9000502AB694683E890013848FFF7F3
:10246000ADF8394D37482860C5E90194C5E9034AFC
:102470006C61AC61C5E9074B28466C6233E0B5631B
:10248000AE6307B0BDE8F08FDFF8C0C0634531D15F
:102490002949091F0B6843F480230B60096801F484
:1024A00080210591016841F00401016000680294F7
:1024B00000F0040005904FF44060CDE90005CDE93F
:1024C000037269462248FFF779F81F4D21486035AD
:1024D0002860C5E90194C5E9034A6C61AC61C5E9AE
:1024E000074B28466C62FEF7B5FF0028C7D0FEF701
:1024F00061F9C4E7184A9342C3D10A6842F0200246
:102500000A60096801F020010591016841F040016D
:1025100001600068029400F0400005904FF4844090
:10252000CDE900050820CDE9037069460B48FFF7A7
:1025300045F8A6E70010014044380240000402407C
:102540000000024040640240BC04002000480040FB
:1025500000080240286002400014014000180240B8
:1025600090F83E30202B0ED159B152B190F83C304A
:10257000012B08D0012380F83C300023036300F0D6
:102580008FBD012070470220704770477047FEE7FB
:102590002DE9F041344A0546002090601160D0607A
:1025A0000820B0EE413AF0EE602A10611020B2EE41
:1025B000091AFAEE090A00F0ADFE07460C209FED5D
:1025C0002B1ADFED2B0AB0EE620A00F0A3FEDFED5E
:1025D0002A2A06460C209FED271AF0EE620AB0EE7A
:1025E000430A00F097FE04460C20B1EE041AF0EE08
:1025F000620AB0EE610A00F08DFE03460C20B3EED5
:10260000021AFBEE020AB0EE420A00F083FE390A1B
:102610001176577631099176310141EA1421D1764C
:10262000147719095177190141EA10219177D07770
:102630000D4A0123183214460B492846FEF7CEF8FE
:1026400000280FD00223224607492846FEF7C6F885
:10265000002807D022462846BDE8F041042302495D
:10266000FEF7BCB8BDE8F0817809002000003442D4
:10267000000034C20000FA43000000000F4810B50B
:102680000D4901600321416000214FF41022816057
:10269000C0E903124FF4001242610176417681765F
:1026A000C17601774177FEF700FB002803D0BDE833
:1026B0001040FEF77FB810BD0064004058030020B2
:1026C0000F4810B50D4901600321416000214FF40E
:1026D00010228160C0E903124FF4001242610176BA
:1026E00041768176C17601774177FEF7DEFA0028E0
:1026F00003D0BDE81040FEF75DB810BD0068004093
:1027000080030020114808B5016841F40011016000
:10271000016801F400110091016841F48001016039
:102720000068002200F48000009005210C20FFF7D3
:10273000B5F80C20FFF7A4F8002205213A20FFF796
:10274000ADF8BDE808403A20FFF79AB830380240AB
:1027500010B58EB01C220B496846FDF75CFE0021C7
:10276000684601F03CFA084C06491C2220601C31E6
:1027700007A8FDF750FE002107A801F030FA6060BD
:102780000EB010BD44500008000000202DE9F041BB
:1027900086B014216846FDF770FE464800240168A3
:1027A00041F002010160016801F002010591016838
:1027B00041F040010160016801F0400105910168AC
:1027C00041F001010160016801F00101059101681A
:1027D00041F008010160016801F0080105910168FC
:1027E00041F004010160016801F0040105910168F4
:1027F00041F480710160016801F480710591016804
:1028000041F080010160016801F0800105910168DB
:1028100041F020010160016801F02001059101688B
:1028200041F0100101600068234E00F01000059097
:10283000002280213046FEF7B9FFDFF880804FF498
:102840008047002239464046FEF7B0FF80200090C6
:102850000125CDE90154694630460394FEF7AEFEEA
:102860000226009669461648CDE90145FEF7A6FE08
:10287000CDE90054694613480294FEF79FFE4FF4D9
:102880004050CDE90006694602944046FEF796FEA8
:102890000097CDE90154694640460394FEF78EFE49
:1028A000E8038DE8310069464046FEF787FE06B032
:1028B000BDE8F081303802400020024000040240B0
:1028C000001402400000024010B596B000240F949E
:1028D00010941194129413941C2168461494FDF7DB
:1028E000CCFD202107A8FDF7C8FD2D482B4901602C
:1028F000A721C0E9011444F61F61C0E90314446133
:102900008461FFF725FB08B1FDF754FF4FF48050B9
:102910000F900FA92248FFF799FB08B1FDF74AFF76
:102920001F48FFF791FC08B1FDF744FF139413A96A
:102930001B481494FFF7C4FA08B1FDF73BFF602071
:1029400000904FF4FA60CDE90104039404940594D7
:102950000022694612480694FFF710FC08B1FDF703
:1029600029FF042269460E48FFF708FC08B1FDF76D
:1029700021FF0794089409944FF400500A94CDE97C
:102980000B4007A906480E94FFF770FA08B1FDF74F
:1029900011FF0348FFF7C8FB16B010BD000001404F
:1029A000A80300200C4810B50A4901604FF4E1313A
:1029B0004160002181600C22C160C0E90412816184
:1029C000C161FFF7D5FC002803D0BDE81040FDF73A
:1029D000F1BE10BD00100140F00300200C4810B5FE
:1029E0000A4901600B494160002181600C22C160ED
:1029F000C0E904128161C161FFF7BAFC002803D06D
:102A0000BDE81040FDF7D6BE10BD000000480040F4
:102A100034040020A08601000C4810B50A4901606A
:102A20004FF4E1314160002181600C22C160C0E9B6
:102A300004128161C161FFF79BFC002803D0BDE84F
:102A40001040FDF7B7BE10BD00140140780400200F
:102A5000FEE7FEE730B5144B1C68656945F040059C
:102A600065611B68DC6844F01004DC600F4B1C6877
:102A7000256825F0010525601C682568ED07F7D15C
:102A80001D680B4CAC601C68E06018680161186838
:102A900042601868016841F480210160186801688B
:102AA00041F00101016030BD340400201C0500200C
:102AB0000448004010B5FEF785FE01F02DFD012809
:102AC00003D0BDE8104001F0B9BC10BD30B593B0E3
:102AD00030216846FDF7D1FC14210CA8FDF7CDFC90
:102AE0001D480025016841F080510160006800F038
:102AF000805011901948016841F4804101600068DC
:102B0000022400F480401190012000900004019004
:102B10008001CDE9064006200890A820CDE90904EF
:102B200004200B906846FEF7D7FF08B172B6FEE7A7
:102B30000CA90F2081E831004FF4A0500F904FF402
:102B40008050109005210CA8FEF7DAFE002801D075
:102B500072B6FEE713B030BD40380240007000404E
:102B60000248016841F470010160704788ED00E09F
:102B7000F0B50268254C264D264E274F274B4FF0C7
:102B8000804CA04209D0604507D0A84205D0B04291
:102B900003D0B84201D0984204D122F0700E4A68A6
:102BA00042EA0E02A0421BD0604519D0A84217D0BD
:102BB000B04215D0B84213D0984211D0184DA84257
:102BC0000ED0184DA8420BD0174DA84208D0174D73
:102BD000A84205D0164DA84202D0164DA84203D1F6
:102BE00022F44075CA682A434D6922F080022A43C4
:102BF00002608A68C2620A688262A04201D098427A
:102C000001D10969016301214161F0BD000001406A
:102C10000004004000080040000C00400004014097
:102C200000400140004401400048014000180040BD
:102C3000001C00400020004010B501F01F030121DE
:102C4000046A99408C430462016A9A40114301620C
:102C500010BD10B5846842EA032224F47F440A437D
:102C60002243826010BD826822F070020A4342F063
:102C70000701816070470000F0B5026A22F001028E
:102C80000262036A42688469124E24F073050C687C
:102C90002C4323F002058B682B430D4DA84201D035
:102CA000B04205D123F00807CB683B4323F004036F
:102CB000A84201D0B04205D14D6922F440721543BB
:102CC0008A692A4342608461496841630362F0BDB6
:102CD0000000014000040140F0B5026A22F0100239
:102CE0000262026A436884690D6824F4E64444EA97
:102CF00005248D6822F0200242EA05120F4D104E85
:102D0000A84201D0B04206D1CF6822F0800242EA48
:102D1000071222F04002A84201D0B04207D14D690B
:102D200023F4406343EA85038D6943EA85034360E6
:102D30008461496881630262F0BD000000000140C7
:102D400000040140F0B5026A22F480720262026A55
:102D50004368C46922F4007224F073050C68124EB3
:102D60002C438D6842EA05220E4DA84201D0B042A4
:102D700006D1CF6822F4006242EA072222F4806280
:102D8000A84201D0B04207D14D6923F4405343EA31
:102D900005138D6943EA05134360C4614968C16343
:102DA0000262F0BD000001400004014030B5026A3B
:102DB00022F480520262046A4268C3690D6823F4F7
:102DC000E64343EA05238D6824F4005444EA0534BD
:102DD000084DA84202D0084DA84204D14D6922F402
:102DE000804242EA85124260C3614968016404621C
:102DF00030BD0000000001400004014010B5036A2E
:102E0000046A24F001040462846924F0F00444EAB2
:102E1000021423F00A020A438461026210BD10B555
:102E2000036A23F0100303628369046A23F4704386
:102E300043EA023224F0A00343EA011182610162F5
:102E400010BD70B5846B2068406994F83D10C0F3E4
:102E5000C0100025212904D118B1E584204600F0D6
:102E60008AF82068406994F83E10C0F38010222947
:102E700004D118B1E585204600F056F8206C40F0EA
:102E8000100020642046FFF772FA70BD10B50146AD
:102E9000806B09680968C9052FD40021C1850168C4
:102EA0000C3151E8002F22F4807241E80023002BFE
:102EB000F5D10168143151E8002F22F0010241E8F8
:102EC0000023002BF5D10168143151E8002F22F0C6
:102ED000400241E80023002BF5D1202180F83E106C
:102EE000016B012909D101680C3151E8002F22F052
:102EF000100241E80023002BF5D1016B012902D01B
:102F0000FFF743FB10BD818DFFF730FA10BD10B500
:102F1000806B016B012902D0FFF738FB10BD818D5A
:102F20004908FFF723FA10BD01680C3151E8002F62
:102F300022F4907241E80023002BF5D1016814318E
:102F400051E8002F22F0010241E80023002BF5D1C7
:102F5000016B012909D101680C3151E8002F22F0E1
:102F6000100241E80023002BF5D1202180F83E100B
:102F700000210163704701680C3151E8002F22F0F5
:102F8000C00241E80023002BF5D1202180F83D103C
:102F90007047000070B5044600680169E26821F4DA
:102FA0004051114301612169A068E26908436169E8
:102FB000114308432168CA6849F20C639A430243EB
:102FC000CA6020684169A26921F4407111434161DE
:102FD00031492068884202D03049884202D1FEF748
:102FE00039FD01E0FEF726FDE26900231921642581
:102FF0003226B2F5004F626828D0A0FB0101930F82
:103000009200FDF791F90146B0FBF5F06FF0180260
:10301000504301EB800006EB0010B0FBF5F000F030
:10302000F002B1FBF5F002EB0012B1FBF5F06FF02E
:103030001803584301EB800006EB0010B0FBF5F0DD
:1030400000F00F0021681044886070BDA0FB0101F2
:1030500092185B41FDF768F90146B0FBF5F00201FB
:10306000B1FBF5F06FF01803584301EB800006EB5D
:10307000C000B0FBF5F000F0F80002EB4002B1FB3D
:10308000F5F0584301EB800006EBC000B0FBF5F013
:1030900000F00700D6E700000010014000140140D6
:1030A00038B58162828500251346044605642220D6
:1030B00084F83E00A26B1B48D063A26B1A481064D0
:1030C000A26B1A48D064A06B0A4605652168A06B04
:1030D000091DFEF729FA206801684068009084F80D
:1030E0003C5020680C3050E8001F41F4807140E8EB
:1030F0000012002AF5D12068143050E8001F41F07A
:10310000010140E80012002AF5D12068143050E88F
:10311000001F41F0400140E80012002AF5D10020D4
:1031200038BD00008D2E00080F2F0008432E000828
:1031300010B5252221492248FFF712FA1F48A0F1B5
:103140006001027F202A15D0303AC37F02EB42048F
:10315000C4EBC21203EBC202437F642413FB04F3EB
:10316000807F00EB800003EB40001044A0F5A050EE
:10317000D0381FE0427F202A10D0C37F303A02EBC4
:10318000C20404EB0212807F03EB820200EB80009A
:103190004FF6F05303EB400010440BE0827FC07FFA
:1031A000202A09D0303A02EB82026FF02F0303EBA2
:1031B00042021044C88210BD3038FBE7DC05002015
:1031C000F0030020264818B400680168890604D579
:1031D00001684068009018BC704722490968C90618
:1031E000F9D501684068204A0090106801684FF0E6
:1031F00024030C031D49046824F00104046016D460
:1032000010684468C4F12404A4B20C8043601068C0
:10321000016841F4002101601068016841F001017A
:103220000160122CD7D1124901F1180015E0146881
:103230006068C0F1240080B2088063600D498B6A29
:1032400023F400238B6211680A6842F001020A60CD
:103250001228C0D1064901F13C0018BC00F0EBBEB9
:1032600034040020004800401C0500200C00002011
:103270007C05002000600240FEE70907090E0028D7
:1032800004DB00F1E02080F80014704700F00F002C
:1032900000F1E02080F8141D7047000000B58BB0ED
:1032A00000200121CDE906010891009001900290D3
:1032B00003900590049069460C48FDF7FDFA0B4811
:1032C000FDF7C4FF02210948FDF776FA0E200990A8
:1032D000059069460648FDF7EFFA0548FDF7B6FF89
:1032E00002210348FDF768FA0BB000BD5803002027
:1032F0008003002000200649024600BF00EB400387
:1033000001EB8303401C5A810828F7DB704700005B
:1033100004060020012131EE601A814070EE600A3F
:10332000491E00EE101AB8EEC00A20EE800AC0EE68
:10333000010ABDEEE00A10EE100A7047F8B1D0EDB8
:10334000101A00EE102AC0ED111AD0ED0F0AB8EED7
:10335000C00AC0ED100A80ED060A00EE101A511ADC
:10336000B8EEC00A80ED070A00EE101AB8EEC00AE7
:1033700080ED0F0A017829B1012939D076E09FED5F
:103380003D0A704790ED011A61EE001AC0ED091A6E
:1033900090ED0A1A90ED022A02EE001A30EE600A51
:1033A00080ED0A1A90ED0D2A80ED0E2A90ED0C2A80
:1033B00080ED0D2A80ED0C0AD0ED030A60EE800A44
:1033C000C0ED0B0A90ED050AB4EEC01AF1EE10FA4A
:1033D00009DCB1EE400AB4EEC01AF1EE10FA02D3E5
:1033E00090ED0A0A01E080ED0A0A31EE800A29E038
:1033F00030EE601A90ED012A21EE021A80ED091AD2
:1034000090ED022A22EE002A80ED0A2AD0ED0D2A44
:10341000C0ED0E2AD0ED0C2AC0ED0D2AF0EE002AE8
:1034200000EEE20A30EE210A80ED0C0AD0ED030A2C
:1034300020EE800A71EE020A80ED0B0A30EE800A5F
:10344000D0ED080A30EE200A80ED080AD0ED040A1B
:10345000B4EEE00AF1EE10FA06DCF1EE600AB4EE2A
:10346000E00AF1EE10FA01D2C0ED080A90ED080A68
:1034700070470000000000006B486C490022027099
:1034800091ED010A80ED010A91ED020A80ED020A38
:1034900091ED030A80ED030A91ED040A80ED040A20
:1034A00091ED050A80ED050A9FED610A80ED0E0A97
:1034B00080ED0D0A80ED0C0A80ED080A80ED0B0A04
:1034C00080ED0A0A80ED090A80ED110A80ED100AEC
:1034D00080ED0F0A80F84820D1ED060AC0ED130AEE
:1034E000D1ED070AC0ED140AD1ED080AC0ED150AA6
:1034F000D1ED090AC0ED160AD1ED0A0AC0ED170A8E
:1035000080ED200A80ED1F0A80ED1E0A80ED1A0A68
:1035100080ED1D0A80ED1C0A80ED1B0A80ED230A58
:1035200080ED220A80ED210A80F89020D1ED0B0A6F
:10353000C0ED250AD1ED0C0AC0ED260AD1ED0D0A29
:10354000C0ED270AD1ED0E0AC0ED280AD1ED0F0A11
:10355000C0ED290A80ED320A80ED310A80ED300A93
:1035600080ED2C0A80ED2F0A80ED2E0A80ED2D0AC9
:1035700080ED350A80ED340A80ED330A80F8682149
:10358000D1ED100AC0ED5B0AD1ED110AC0ED5C0A65
:10359000D1ED120AC0ED5D0AD1ED130AC0ED5E0A4D
:1035A000D1ED140AC0ED5F0A80ED680A80ED670A6C
:1035B00080ED660A80ED620A80ED650A80ED640A9E
:1035C00080ED630A80ED6B0A80ED6A0A80ED690A7E
:1035D00080F8D820D1ED150AC0ED370AD1ED160AD2
:1035E000C0ED380AD1ED170AC0ED390AD1ED180A3D
:1035F000C0ED3A0AD1ED190AC0ED3B0A80ED440A4C
:1036000080ED430A80ED420A80ED3E0A80ED410ADA
:1036100080ED400A80ED3F0A80ED470A80ED460AC2
:1036200080ED450A70470000B00700201C00002014
:1036300000000000114808B54FF40071016000213E
:103640008160C16008210161A0F50C710C488A8E6F
:10365000130A037042708A8D130A8370C2700A8C39
:10366000130A03714271898F6B460A0A8271C17114
:10367000024602490348FDF7B1F808BD6009002081
:10368000840000208003002070B5624C4FF43E653A
:103690002DED048B6E420023606840882087A0686F
:1036A00040882086E068B0F90210218520694088B2
:1036B000A4F8400094F92A0020B1032804D004287B
:1036C00004D004E0638402E0658400E06684B4F919
:1036D00022205148FFF732FEBDEEC00A10EE100A5C
:1036E000208494F9320020B1012804D0022804D0AB
:1036F00004E0E38502E0E58500E0E6854648B4F9AC
:103700002E20B4F930104838FFF718FEBDEEC00A7D
:1037100010EE100AA08594F93A0020B1012804D0D7
:10372000022805D007E0E38605E04FF4617001E070
:103730004FF67C40E0863748B4F93620B4F93810AB
:103740008030FFF7FBFDBDEEC00A10EE100AA08628
:1037500094F84200B8B994ED190ABDEEC00A10EE13
:10376000100A94ED180A02B2BDEEC00A10EE100A5B
:1037700001B22948D830FFF7E1FDBDEEC00A10EED6
:10378000100AA4F8440094F94200012802D002284B
:1037900003D006E04FF4BE7001E04FF68460A4F859
:1037A00044001D48B4F94420B4F9401048301034A6
:1037B000FFF7C4FDBDEEC00A4FF4B47110EE100A5D
:1037C000A08525682888484301F0C5F99FED139B23
:1037D00053EC192B01F050F89FED121B53EC112BF9
:1037E00001F0CCF941EC180B68894FF4B47110FB6F
:1037F00001F001F099F953EC192B01F03DF853EC6D
:10380000182B00F091FF00F05DFF2065BDEC048BEC
:1038100070BD0000300700204008002000000000BC
:1038200000003340000000000000203F70B586B06B
:1038300000F096F92A4C206000F096F9E061FFF75D
:103840001BFE0025284600F083F904EB85016D1C62
:10385000EDB24860062DF5D3002084F82A0084F8E4
:10386000320084F83A0084F8420084F848009FED62
:103870001D0A84F8490084ED1B0A84ED140A84EDC6
:10388000130AD4ED180A1849C4ED190A84ED180A70
:1038900040F2DC504880FF24FC25CDE90445029429
:1038A0000394009423462246022110480194FCF719
:1038B0004BFF4FF448763046FDF76EFECDE90445E8
:1038C000FF230294039400941A46042107480194AC
:1038D000FCF73AFF06B03046BDE87040FDF75CBE2D
:1038E00030070020000000001C00002058030020CA
:1038F0002DE9F0478F4D00248F4985F8484028680E
:103900000126C37A022B02D1827A012A10D00C70D0
:10391000884691F800C00322042102274FF4004991
:10392000BCF1000F06D0838AB3F5805F1BD028E07E
:103930000E70EDE7012B10D1837A032B0DD1B0F976
:103940000630002B01DD85F82A20B0F90620002A78
:1039500001DA85F82A10C18809B985F82A40C17AA8
:10396000012915D025E0B0F90E30002B01DA85F8D9
:103970002A20B0F90E20002A01DD85F82A10C1891D
:1039800009B985F82A40818AB1F5005F17D021E096
:10399000817A02290DD1B0F90610002901DD85F8E0
:1039A0004860B0F90610002901DA85F84870C1882E
:1039B00009B985F84840C17A012917D027E0B0F944
:1039C0000E10002902DA85F8486005E002DD85F86E
:1039D000487001E085F84840818A494521D1B0F915
:1039E0000E10002919DA85F849601CE0817A012956
:1039F0000DD1B0F90610002901DD85F84960B0F954
:103A00000610002901DA85F84970C18809B985F8DE
:103A10004940C17A03290AD01AE002DD85F84970CD
:103A200001E085F84940818A402917D021E0817A58
:103A300001290DD1B0F90610002901DD85F83260A9
:103A4000B0F90610002901DA85F83270C18809B989
:103A500085F83240C17A022912D02EE0B0F90E105A
:103A6000002902DA85F8326005E002DD85F832705F
:103A700001E085F83240818AB1F5806F12D01CE0F8
:103A8000817A032919D1B0F90610002901DD85F8E2
:103A90003A60B0F90610002901DA85F83A70C0885A
:103AA00058B10CE0B0F90E00002802DA85F83A604F
:103AB00005E002DD85F83A7001E085F83A40FCF750
:103AC000ABFD95F9421085F8431098F800000028E6
:103AD000286809D0828A4A451FD1B0F90E00002813
:103AE00017DA85F842601AE0C27A032A15D1827A81
:103AF000022A12D1B0F90620002A01DD85F84270B1
:103B0000B0F90620002A01DA85F84260C08820B1A9
:103B100005E002DD85F8427001E085F8424095F944
:103B20004200814203D095ED180A85ED190ABDE8DF
:103B3000F0870000300700201C000020FFF776FE11
:103B4000FFF7D6FEFFF7A0FDFFF774FDF8E70000D2
:103B5000024900EB400001EB8000704704060020A2
:103B6000004870477C050020004870471400002082
:103B7000FDF730FEFEF7AAFFFEF708FEFEF77EFD1A
:103B8000FEF7C0FDFEF72AFFFEF79EFEFEF70AFFD6
:103B9000FEF796FDFEF740FF00F03EFAFFF77EFBD2
:103BA000FFF7A8FB0748FEF715FA00210548FEF7C6
:103BB00079FB04210348FEF775FBFEF7C9FD00F011
:103BC00009F8FEE7A803002001460020842900D060
:103BD000C81C704710B500F04BFB002010BD7FB52E
:103BE0000D4604464169B0F9080081B1A16971B17F
:103BF000FFF7EAFFD4E905128DE80700D4E90010C9
:103C00002B46226900F05DFC039004B070BDFFF705
:103C1000DBFF03A9CDE90001208A2B4682B2D4E95B
:103C2000001000F021FC012801D00020EDE70398EE
:103C3000EBE700002DE9F041054600F0A1FA2E4C1B
:103C4000A068401CA06020682C4F10B1606940B390
:103C50002DE02560A068012829D1002606EB86000A
:103C600007EB800000F072FA761C072EF6D323488B
:103C70008C3000F06BFA2148A03000F067FA1F4842
:103C8000B43000F063FA1D48C83000F05FFA1B48FA
:103C9000DC3000F05BFA19488C3060631430A063AC
:103CA00005E02068E96AC06A884200D82560606A39
:103CB000401C6062E96A012022698840104320614B
:103CC00001EB810007EB8000291D00F04DFA00F0A8
:103CD00077FA606900280CD02068E96AC06A8842D7
:103CE00007D207494FF080500860BFF34F8FBFF3F2
:103CF0006F8FBDE8F08100009C000020F8090020D3
:103D000004ED00E010B5044690F8510058B10128C8
:103D10000CD002280FD0502080F31188BFF34F8FB2
:103D2000BFF36F8FFEE7206B00F05EFA2046BDE820
:103D3000104000F059BA10BD10484FF470514207BE
:103D400006D0C01D0D4920F00700411AC1F5705181
:103D50000B4A00230144C2E900030839183A21F054
:103D6000070111604B600B600B1AC0E900139360F0
:103D70004FF000405360506170470000E80A002097
:103D8000F0000020144E154CA6F1C8074FF08058E3
:103D9000DFF84C9012E000BF00F0F2F9F068C5685F
:103DA000281D00F0B6F9A068401EA0606068401EA3
:103DB000606000F005FA2846FFF7A4FF606800285D
:103DC000EAD138680128F9D9C9F80080BFF34F8FCC
:103DD000BFF36F8FF2E70000C00A00209C000020B4
:103DE00004ED00E02DE9F0479A46DDE909848146BB
:103DF0006FF00303206B03EB82021044089E20F057
:103E00000707780707D0502080F31188BFF34F8F42
:103E1000BFF36F8FFEE7002561B1002023180A5C15
:103E200083F834200A5C12B1401C1028F6D384F8C1
:103E3000435001E084F83450072E00D30626E66292
:103E4000C4E91165201D00F08CF904F1180000F0A0
:103E500088F92461C6F107006462A061E56484F812
:103E6000505052464946384600F0C0F82060B8F13C
:103E7000000F01D0C8F80040BDE8F08730B5114907
:103E800000E011460A688242FBD34B685C1884420A
:103E900003D1406818444860084643681C1894429F
:103EA00009D1084C183C2468A24209D052681A442F
:103EB00042600A6812680260814200D0086030BD2A
:103EC0000460F9E7F00000200648416B096829B159
:103ED000416BC968C9684968816270474FF0FF311A
:103EE000FAE700009C00002008484068401C4FF0A2
:103EF000500080F3118804D0BFF34F8FBFF36F8F52
:103F0000FEE7BFF34F8FBFF36F8FFEE7F80000208F
:103F10002DE9F0410546002700F0E0F9324E306807
:103F200008B9FFF709FF706905424ED1C5B30835DE
:103F300068070ED005F00700C0F1080005446807C7
:103F400007D0502080F31188BFF34F8FBFF36F8FDE
:103F5000FEE72DB37068854237D8234818300146F4
:103F60000C6801E020460C466168A94202D2216833
:103F70000029F7D131688C4227D007682168016099
:103F800060680837411B10290FD96019420708D013
:103F9000502080F31188BFF34F8FBFF36F8FFEE780
:103FA00013E041606560FFF769FF61687068401A5F
:103FB0007060B268904200D2B06070690143002026
:103FC000C4E90001F068401CF06000F019FB7807BC
:103FD00007D0502080F31188BFF34F8FBFF36F8F4E
:103FE000FEE73846BDE8F081D800002010B5031F79
:103FF0004FF080741C601B1F21F001011960191F14
:10400000044B0B6014390A60091F6FF00202443838
:104010000A6010BDE93E000802492422A1F12400F3
:10402000FEF718BDB8050020FFF7F6FFFFF7CAF846
:10403000FFF77EF8FAE7F0B5002855D0002953D0F5
:104040000278437842EA0322C2F30A020A804378E4
:104050008478DB0843EA4413C3F30A034B80847873
:10406000C578A40944EA8504057944EA8524C4F3A3
:104070000A048C80057946796D0845EAC615C5F3B2
:104080000A05CD804679C6F301168E724679B609C7
:10409000CE728679C77946EA07268E81067A477AF4
:1040A00046EA0726CE81867AC77A46EA07260E8236
:1040B000067B8E74467BCE74867BC77B46EA0726DA
:1040C0008E82067C407CA2F580620A80A3F5806324
:1040D0004B80A4F5806446EA00208C80A5F58065BD
:1040E000CD80A0F580600881F0BD01EE100A70EE71
:1040F000C00A0120B8EEC11A8840401E21EE201AE5
:1041000000EE900AF8EEE01AC1EE210A30EE800AC5
:104110007047D0E9013201699A60D0E901235A6001
:104120004A68824201D182684A60002202610868BE
:10413000401E086008687047034B036003F1540099
:1041400008608020106070470401002000F1080121
:104150004FF0FF32C0E90112C1600161002101602E
:10416000704700210161704742684A6093688B6024
:1041700093685960916008610168491C016070474B
:10418000502080F31188BFF34F8FBFF36F8F0A4920
:104190004868401C486001280CD10848006810F0AD
:1041A000FF0F07D0502080F31188BFF34F8FBFF36C
:1041B0006F8FFEE770470000F800002004ED00E07C
:1041C0000849486828B1401E486001D180F3118831
:1041D0007047502080F31188BFF34F8FBFF36F8F6C
:1041E000FEE70000F800002070B500282AD0164D28
:1041F000A0F1080460686969084207D1502080F383
:104200001188BFF34F8FBFF36F8FFEE722683AB17B
:10421000502080F31188BFF34F8FBFF36F8FFEE7FD
:104220008843606000F05AF8606869680844686014
:104230002046FFF723FE2869401C2861BDE8704036
:1042400000F0DEB970BD0000D80000204FF0E02083
:1042500000210161816105494FF47A720968B1FB5F
:10426000F2F1491E41610721016170479800002069
:1042700010B586B00024039405AA04A903A80494E9
:10428000FFF75AFFDDE903010094CDE90110002397
:104290000EA11048059A00F014F90F490028C862D1
:1042A00011D0502080F31188BFF34F8FBFF36F8F71
:1042B0004FF0FF30886201204861CC6006B0BDE855
:1042C000104000F041B806B010BD000049444C4514
:1042D00000000000853D00089C0000200248016BA2
:1042E000491C0163704700009C0000201448016BCA
:1042F00011B10121C16170470021C1610169B1FAA9
:1043000081F1C1F11F0101EB81020E4951F8223008
:104310006BB101EB820101F108034A6852684A60FF
:104320009A4201D152684A60D168016070475020BA
:1043300080F31188BFF34F8FBFF36F8FFEE700004C
:104340009C000020F80900201CB537480168374A56
:10435000914207D1502080F31188BFF34F8FBFF3F4
:104360006F8FFEE700683149491E884207D150200F
:1043700080F31188BFF34F8FBFF36F8FFEE72C4997
:1043800008780190FF20087008788DF800009DF8EB
:1043900000009DF8002000F0F000904207D050206F
:1043A00080F31188BFF34F8FBFF36F8FFEE79DF847
:1043B0000000204C00F0500020700720A06005E0B5
:1043C0009DF8002052008DF80020401E9DF800202E
:1043D0001206F5D4A060032807D0502080F311887E
:1043E000BFF34F8FBFF36F8FFEE74FF44070A060B5
:1043F000019808700C482030016841F47001016098
:10440000016841F070410160FFF720FF002060600B
:10441000FBF72EFF0848016841F040410160FBF7BF
:1044200013FF00201CBD000000ED00E071C20F4131
:1044300000E400E0F800002034EF00E010B5502068
:1044400080F31188BFF34F8FBFF36F8F00F072F8C6
:1044500018B104494FF080500860002080F31188A3
:1044600010BD000004ED00E02DE9FF5F8346DDE9AB
:104470000E87994616468A469000FFF749FD0500CB
:104480001CD05420FFF744FD040014D00020256305
:1044900084F85100CDE90240CDE900874B46324611
:1044A00051465846FFF79EFC2046FFF7C3FB01200C
:1044B00004B0BDE8F09F2846FFF796FE4FF0FF30AE
:1044C000F6E7F0B585B0DDE90B640A9DA6B1DCB175
:1044D000542700972663022684F85160002604AF13
:1044E000CDE90246CDE90057FFF77CFC2046FFF7F7
:1044F000A1FB049805B0F0BD502080F31188BFF3F4
:104500004F8FBFF36F8FFEE7502080F31188BFF30A
:104510004F8FBFF36F8FFEE70548416919B1006BFC
:1045200018B100207047012070470220704700003A
:104530009C0000202DE9F0412F4C0026206B28B173
:10454000A069401CA0613046BDE8F081E5686D1CA3
:10455000E56013D1606B006838B1502080F311889A
:10456000BFF34F8FBFF36F8FFEE7606BA16B61638B
:10457000A063206A401C2062FFF7A6FCA06ADFF857
:104580007C80854209D3606B0068A0B1606BC06815
:10459000C7687868854211D2A0622068C06A00EBC3
:1045A000800158F82100012800D90126E06900287F
:1045B000C9D00126C7E74FF0FF30EDE7381DFFF700
:1045C000A8FDB86A18B107F11800FFF7A2FDF96A53
:1045D0000120226988401043206101EB810108EB32
:1045E0008100391DFFF7C0FDF86A2168C96A884259
:1045F000C9D30126C7E700009C000020F80900206D
:104600002DE9F0472C4D00242746286B38B1FFF7E1
:10461000B7FD286B401E2863286B40B146E0502050
:1046200080F31188BFF34F8FBFF36F8FFEE7A96848
:10463000224E0120D1B3A6F1B40980463068E8B11A
:10464000F068C46804F11800FFF763FD201DFFF750
:1046500060FDE06A2A6908FA00F11143296100EB64
:10466000800109EB8100211DFFF77EFDE06A2968CA
:10467000C96A8842E2D3C5F81C80DFE70CB1FFF7B6
:1046800023FCAC6944B14646FFF754FF00B1EE612C
:10469000641EF9D10020A861E86938B108490127F2
:1046A00038070860BFF34F8FBFF36F8FFFF788FDA8
:1046B0003846BDE8F08700009C000020AC0A0020CE
:1046C00004ED00E021F00042A2F16052B2F5801F3B
:1046D00001F0004328BFD2F17F6C0BD95FEA001CC8
:1046E00043EAC20242EB507018BF704728BF20F067
:1046F00001007047B2F5801FBCBF184670474FEAF3
:10470000410C1CF5001F02D2084600F095BC70B5A4
:1047100000F0DEFA00000089FFF7F6BF4FF000401E
:10472000A0F580007047000010B591EA030F48BF64
:1047300083F0004300F12883841A71EB030C05D247
:10474000121943EB0C03001B61EB0C01DFF824E1B1
:104750004FEA1154A4EB135C1EEA430F18BF9EEA04
:10476000445F73D023EA0E03DCF1200E21EA0451EA
:1047700043F4801332D322FA0CFE10EB0E0023FA1E
:104780000CFE41EB0E01CCF1200E03FA0EFE10EBF5
:104790000E0051F10001B1F5801FCCF1200E32D294
:1047A00001EB045112FA0EF2BDE8104058BF7047F9
:1047B000401C38BF5FEA420218BF7047002814BF90
:1047C00020F0010041F100014FEA410313F5001F01
:1047D00038BF7047A1F1C04100F0C8BA012A43EBCD
:1047E0000302ACF1200CDCF11F0E32BF4FF0000EC3
:1047F00023FA0CF310EB030041EB0451B4EB115F0F
:10480000D0D0A1EB045101F5801149085FEA3000D6
:1048100001EB04510ED350F1000038BF12FA0EFE26
:1048200008D1BDE81040C9E7401C38BF5FEA42022A
:10483000CAD1C3E7BDE810404FEA410313F5001F9A
:1048400038BF7047A1F1C04100F090BA9EEA445FC2
:1048500008D011EA5E0FBDE8104004BF01F000412E
:1048600000207047BDE8104070B500F031FA00BF7D
:1048700064FBBE3E0000E0FF2DE9C04130B4DFF82C
:10488000A0C23CEA111418BF3CEA131400F0EC80FB
:1048900081EA03051CEA111444EAD57418BF1CEA26
:1048A000131500F0C780A4EB05044FF0004545EA5E
:1048B000C12145EAC32341EA505143EA525304F16E
:1048C0007F74994204F500344FEAC0204FEAC222B7
:1048D00008BF904200F09C804FEA13650FF240162B
:1048E000765D4FEA134506FB05F7C7F1807706FBB7
:1048F00007F74FEAD737A7FB03687642C8F5803839
:10490000A7FB06CE38BFA8F1010807FB08E64FF069
:10491000000EA6FB028CE6FB03CEDCF1000CCEF110
:10492000004E38BFAEF1010EA6FB0C584FF0000749
:104930004FF00005E6FB0E87A1FB08C6A0FB07CEE3
:1049400016EB0E0645F10005E1FB076515F1E04E9B
:104950007EBFA4F580345FEA46066D4116F18007FC
:1049600045F100054FEA17274FEA066647EA056753
:10497000A6F1DE46B6F1805F4FEA15251FD938460D
:1049800024F0010C05EBC471BCF1FE6F01EB0C11BE
:1049900002D8F0BCBDE8008124425CBF01F5801E56
:1049A0009EEAC47F02D4F0BCBDE80081244238D422
:1049B000F0BCA1F1C041BDE8004100F0D7B94FEA19
:1049C000D22242EA43524FEAD323A7FB02864FEAA0
:1049D000D02040EA415007FB03661EEA0E0F4FEA63
:1049E000D12105FB026658BFA6EB0056B6EB005678
:1049F0004FEA520E4EEAC37E18EB0E0E56EB530EE4
:104A0000BDD518EB02085E417F1C55F10005B6E7E5
:104A10004FF480154FF000074FF000064FF00008EC
:104A2000ADE7F0BC4FF0000001F1C04101F00041E2
:104A3000BDE8008111EA0C1F0CEA131500D00CE050
:104A400013EA0C1F00F025804FF00000F0BC81EA53
:104A5000030101F00041BDE80081F0BCBDE8004168
:104A600081EA030100F082B9F0BCBDE8004170B5F5
:104A700000F02EF9097EFC3E00F007B881EA030140
:104A80004FF0000001F00041704781EA030100F09F
:104A90006DB9F0BCBDE800414FF0000021497047FE
:104AA000FFFDFBF9F7F5F4F2F0EEEDEBE9E8E6E4F3
:104AB000E3E1E0DEDDDBDAD8D7D5D4D3D1D0CFCD7A
:104AC000CCCBCAC8C7C6C5C4C2C1C0BFBEBDBCBBB3
:104AD000BAB9B8B7B6B5B4B3B2B1B0AFAEADACABAE
:104AE000AAA9A8A8A7A6A5A4A3A3A2A1A09F9F9E88
:104AF0009D9C9C9B9A99999897979695959493933A
:104B0000929191908F8F8E8E8D8C8C8B8B8A8989D0
:104B10008888878786858584848383828281818053
:104B20000000FF070000F87F10F0004248BF40423D
:104B3000B0FA80F310FA03F10AD0C3F11D0303F5B4
:104B400080634FEA415002EB035202EBD1217047E0
:104B50004FF000007047B0FA80F310FA03F10AD06A
:104B6000C3F11D0303F580634FEA41504FEA03523E
:104B700002EBD12170474FF000007047DFF848C1C9
:104B800070B51CEA111E1EBF1CEA13159EEA0C0F1D
:104B900095EA0C0F00F06F8081EA030423EA4C13BE
:104BA0004EEAD47E21EA4C1141F4801143F4801383
:104BB000AE44A1FB024CA0FB0365AEF17F7E36192B
:104BC00055EB0C05A1FB034C4CF10003A0FB021CB0
:104BD00016EB0C06654153F10003094218BF46F07D
:104BE000010613F4007F0BD14FEA03314FEA053081
:104BF000340341EA155140EA16506FF003020AE00F
:104C00004FEAC3214FEAC520F40241EA555140EA78
:104C100056506FF0020202EB2E4201EB025585EA7C
:104C2000CE710AD05FEA440C18BF24F0004450F162
:104C3000000041F1000120EAD47040F2FE7C6245A0
:104C400000D270BDA84214BF4FF080444FF04044E2
:104C5000002E08BF0024BEF1806FA8BFA1F1C041A3
:104C6000BDE8704080F282804FF0000001F1C04149
:104C700001F0004170479EEA0C0F0CEA131518BFB3
:104C800095EA0C0F06D04FF0000081EA030E0EF0FB
:104C9000004170BD00F01CF88900013E00F007B82B
:104CA00000F009B84FEA430C5FEA5C5C08D081EA87
:104CB000030100F05BB84FEA410C5FEA5C5CF6D19F
:104CC0004FF00000014970470000FF070000F87F27
:104CD0000EF1020E2EF0030E5EF8046B364205D480
:104CE000012A43EB030515F5001F12D8012841EBFB
:104CF000010C1CF5001F0CD80ED14FEAD17C15F524
:104D0000001F0CEB4C0C0CF1020C08BF4CEBD37CDD
:104D100004E04FF0080C01E04FEAD37C0CEB4C05AB
:104D200026FA05F606F00706B6F1040C06D20EEBDD
:104D3000860CBDE870404CF0010C6047DFE80CF0D9
:104D4000090B02024FF000414FF00000A1F50021D5
:104D500070BD19461046012851EB010418BFD4F567
:104D6000001484BF002001F0004170BD0808A0F5C8
:104D700000114FEA3101704710B591EA030F48BFA7
:104D800083F000433FF5D8AC841A71EB030C07D2D3
:104D900012198CF0004C43EB0C03001B61EB0C016F
:104DA000DFF8A4E14FEA1154A4EB135C1EEA430FB1
:104DB00018BF9EEA445F00F0B08023EA6E035242BF
:104DC00021EA0451C3EB6E0338BF5B1EDCF1200EF9
:104DD00025D322FA0CFE10EB0E0043FA0CFE41EB39
:104DE0000E01CCF1200E03FA0EFE10EB0E0051F175
:104DF0000001CCF1200E29D412FA0EF201EB04517D
:104E0000BDE8104058BF7047401C1CBFB2F1004FB6
:104E1000704700280CBF491C20F00100704712EBBE
:104E2000020E43EB030218BF4FF0010E4EEA42029E
:104E3000ACF1200CDCF11E0E54D943FA0CFE10EB41
:104E40000E0051F1FF31CCF11E0ED5D50EF1010E41
:104E500012FA0EFE404141EB010101EB445C5FEAB6
:104E60005C5C10D910EBDE7001EB045138BFBEF171
:104E7000004FBDE8104018BF704700280CBF491C08
:104E800020F00100704730D24FEAD42C11F5001108
:104E900024F400641BD0B1FA81F20B3AA41AA41EC8
:104EA000D2F12003914030FA03F31943904001EB13
:104EB000CC71002C01EB0451BDE81040A8BF704735
:104EC00001F1C0414FF0000001F000417047B0FA1D
:104ED00080F310FA03F100D110BDE41A173C480525
:104EE000C90AE4E701EB045110BD491001EB04517C
:104EF000BDE810404FEA300002E04FF0000170477B
:104F00004A0008BF0042F8D0B2F5001F28BF704722
:104F100001F000414FF0000070479EEA445F07D067
:104F200011EA5E0FBDE8104004BF00210020704769
:104F3000BDE8104070B5FFF7CBFE00BF40DFF63E86
:104F400083F00041104670470000E0FF43004FEA45
:104F5000D30C4FEA3C0C43401FBF40070CF160519B
:104F600013F0FE4F70471CF0006F03D100200CF0CF
:104F7000004170470CF0004343EA507010B540EA1E
:104F8000CC0000F00EF800BF000000924FEA0001D4
:104F9000FFF7ECBE4FF000414FF00000A1F50021FB
:104FA00070470EF1020E2EF0030E5EF8044B244201
:104FB00004D44FEA4102B2F17F4F11D84FEA4003C7
:104FC000B3F17F4F0CD80ED14FEAD07CB2F17F4FB6
:104FD0000CEB4C0C0CF1020C08BF4CEBD17C04E048
:104FE0004FF0080C01E04FEAD17C0CEB4C0324FAA3
:104FF00003F404F00704B4F1040C06D20EEB840CA5
:10500000BDE810404CF0010C6047DFE80CF00708E9
:1050100002024FF00040A0F5800010BD084642009B
:1050200018BFD2F1807288BF00F0004010BD4FF071
:105030004070E1EE100A7047FF2141EAD050C005F0
:10504000704700009C500008294000080000000044
:1050500000000000800000000000000000000000D0
:10506000A45000083D3B00080000000000000000C4
:105070008000000000000000000000000006101684
:1050800000061016000000000000000001020304EA
:1050900006070809000000000102030472656D6F35
:1050A00074650000666F726561726D00CC50000817
:1050B0000000002004010000C4010008D0510008D5
:1050C00004010020444C0000E00100080000000042
:1050D00000000000000000000000000000000000D0
:1050E000000000000000000001000000000020415E
:1050F00000000000000000000000FA440000803FB3
:105100000000204100000000000000000000FA4400
:105110000000803F0000204100000000000000006F
:105120000000FA440000803F0000704200000000D0
:105130000000A0400000C8430000803F0000204164
:10514000000000000000000000401C460000803FFE
:10515000000000000000000001000000100000003E
:10516000000000000024F400000000000000000027
:10517000000000000000000000000000000000002F
:10518000000000000000000000000000000000001F
:10519000000000000000000000000000000000000F
:1051A00000000000000000000000000000000000FF
:1051B00000000000000000000000000000000000EF
:1051C0000000000000000000AAAAAAAA0000000037
:040000050800018965
:00000001FF
