:020000040800F2
:10000000204E00202903000889390008B733000872
:100010008539000883050008D54400080000000069
:10002000000000000000000000000000690200085D
:100030000D09000800000000C5020008293A000868
:100040004303000843030008430300084303000878
:100050004303000843030008430300084303000868
:100060004303000843030008430300084303000858
:10007000A9050008430300084303000843030008E0
:100080004303000843030008430300084303000838
:1000900089050008430300084303000843030008E0
:1000A0004303000843030008430300084303000818
:1000B0004303000843030008430300084303000808
:1000C00043030008430300084303000843030008F8
:1000D000430300084303000843030008B14300083A
:1000E00043030008430300084303000843030008D8
:1000F00043030008430300084303000843030008C8
:1001000043030008430300084303000843030008B7
:1001100043030008430300084303000843030008A7
:100120004303000843030008B9050008430300081F
:100130004303000843030008430300084303000887
:10014000990500084303000843030008430300081F
:100150004303000843030008430300084303000867
:100160004303000843030008430300084303000857
:100170004303000843030008430300080000000095
:10018000430300084303000800F002F800F05CF8A5
:100190000AA090E8000C82448344AAF10107DA45E2
:1001A00001D100F051F8AFF2090EBAE80F0013F0D8
:1001B000010F18BFFB1A43F001031847AC6B000096
:1001C000CC6B00000A444FF0000C10F8013B13F018
:1001D000070408BF10F8014B1D1108BF10F8015BA0
:1001E000641E05D010F8016B641E01F8016BF9D193
:1001F00013F0080F1EBF10F8014BAD1C0C1B09D1EA
:100200006D1E58BF01F801CBFAD505E014F8016B5B
:1002100001F8016B6D1EF9D59142D6D370470000ED
:100220000023002400250026103A28BF78C1FBD8FF
:10023000520728BF30C148BF0B6070471FB506F09A
:100240003EFD1FBD10B510BD00F061F91146FFF76E
:10025000F5FF05F01DF800F07FF903B4FFF7F2FF9A
:1002600003BC00F087F900002C4B19680868B0E85F
:10027000F04F80F30988BFF36F8F4FF0000080F3D9
:10028000118870470000000008480068006880F38B
:1002900008884FF0000080F3148862B661B6BFF39F
:1002A0004F8FBFF36F8F00DF00BF00BF08ED00E08E
:1002B000DFF80C00016841F470010160704700BF75
:1002C00088ED00E0EFF30980BFF36F8F134B1A68DE
:1002D0001EF0100F08BF20ED108A20E9F04F1060CB
:1002E00009B44FF0500080F31188BFF34F8FBFF374
:1002F0006F8F05F0E9FC4FF0000080F3118809BC16
:1003000019680868B0E8F04F1EF0100F08BFB0EC95
:10031000108A80F30988BFF36F8F7047E8000020D0
:10032000EFF30580704700000948804709480047FF
:10033000FEE7FEE7FEE7FEE7FEE7FEE7FEE7FEE795
:10034000FEE7FEE704480549054A064B70470000F2
:10035000F13A00088901000820480020204E0020C2
:10036000204A0020204A002053EA020C00F0698055
:100370002DE9F04B4FF00006002B1FBFB3FA83F5B9
:1003800003FA05F424FA05F65E4012BF1643B2FAEA
:1003900082F502FA05F4C5F120051EBF22FA05FC1C
:1003A00044EA0C04203556EA044C4FEA144418BFC2
:1003B000641C4FF000084FF00009904271EB030CF1
:1003C00039D3002919BFB1FA81F701FA07F6B0FA5B
:1003D00080F700FA07F6C7F120071EBF20FA07FCD6
:1003E00046EA0C062037B6FBF4FCA7EB0507103FE6
:1003F00007F01F0BCBF120060CFA0BFB2CFA06F6CC
:1004000044BFB3460026202FA4BF5E464FF0000B2A
:100410005BEA060C08BF4FF0010B19EB0B09ABFBB5
:10042000027C48EB0608C01B06FB02CC0BFB03CC8E
:1004300071EB0C01C1E70B46024641464846BDE858
:10044000F08B13B54FF000004FF00001AFF30080C8
:10045000BDE81C40704710B5203AC0F00B80B1E8F1
:100460001850203AA0E81850B1E81850A0E81850E9
:10047000BFF4F5AF5FEA027C24BFB1E81850A0E8F2
:10048000185044BF18C918C0BDE810405FEA827C0C
:1004900024BF51F8043B40F8043B08BF7047D20723
:1004A00028BF31F8023B48BF11F8012B28BF20F8C4
:1004B000023B48BF00F8012B70474FF0000200B527
:1004C000134694469646203922BFA0E80C50A0E877
:1004D0000C50B1F12001BFF4F7AF090728BFA0E825
:1004E0000C5048BF0CC05DF804EB890028BF40F8F1
:1004F000042B08BF704748BF20F8022B11F0804F33
:1005000018BF00F8012B7047704770477047754659
:1005100000F02CF8AE4605006946534620F007006F
:10052000854618B020B5FFF70DFFBDE820404FF01D
:1005300000064FF000074FF000084FF0000B21F0CD
:100540000701AC46ACE8C009ACE8C009ACE8C0099A
:10055000ACE8C0098D46704710B50446AFF3008083
:100560002046BDE81040FFF778BE00000048704705
:10057000BC47002001491820ABBEFEE72600020060
:10058000704700BFFEE7000010B5024800F00CFC09
:1005900010BD0000A403002010B5024800F004FCC8
:1005A00010BD0000CC03002010B5024801F0E4FAB1
:1005B00010BD00006805002010B5024801F0DCFA0B
:1005C00010BD0000080500200146087810381823E7
:1005D000B0FBF3F20848805CC865032A05D90868B7
:1005E0006FF30900001D886503E008686FF30900D8
:1005F0008865886D70470000286D0008014600205E
:100600008A6A8B69CBB932B1012A0DD0022A03D094
:10061000032A10D10EE000BFCB6A03F08073B3F160
:10062000807F00D1012007E0CB6AB3F1C07F00D109
:10063000012001E000E000BF34E08B69B3F5005F0A
:100640001AD132B1012A07D0022A03D0032A11D1CC
:100650000AE000BF01200EE0CB6A03F08073B3F123
:10066000807F00D1012006E0CB6AB3F1C07F00D1CA
:10067000012000E000BF15E032B1012A05D0022AB6
:1006800004D0032A0CD103E000BF00BF012008E022
:10069000CB6A03F08073B3F1807F00D1012000E0CA
:1006A00000BF00BF704730B50468246824F480247C
:1006B00005682C60046863608468402C04D1046879
:1006C000A2600468E16003E00468A1600468E2607D
:1006D00030BD000010B52DED048B7D4890F848002A
:1006E000B0B37B4890F84800012816D1784890EDC7
:1006F000130A10EE101A084606F070FA41EC190BB6
:100700009FED740B53EC102B05F0EAFD41EC180B38
:1007100005F0B4FD6E49C8641AE06D4890F84800D1
:10072000022815D16A4890ED130A10EE101A0846F7
:1007300006F054FA41EC190B9FED660B53EC102BAD
:1007400006F062F941EC180B05F098FD6049C864A9
:100750005F4890ED130A10EE101A084606F03EFAB4
:1007600041EC180B9FED5D0B53EC102B06F016F9C6
:1007700005D29FED5C0A564880ED130A15E05448F7
:1007800090ED130A10EE101A084606F027FA41EC15
:10079000180B9FED550B53EC102B05F0C5FF04D241
:1007A0009FED530A4A4880ED130A4948D0ED130AD9
:1007B000B0EE600A9FED4F2AF7EE001AB0EE001A75
:1007C000DFED4C0A02214C4802F0F8FD052001F053
:1007D000B3FB3F4890F84900B0B33D4890F849005A
:1007E000012816D13A4890ED140A10EE101A084666
:1007F00006F0F4F941EC190B9FED360B53EC102B7E
:1008000005F06EFD41EC180B05F038FD3049086528
:100810001AE02F4890F84900022815D12C4890ED95
:10082000140A10EE101A084606F0D8F941EC190B1C
:100830009FED280B53EC102B06F0E6F841EC180B5B
:1008400005F01CFD22490865214890ED140A10EEC0
:10085000101A084606F0C2F941EC180B9FED270B61
:1008600053EC102B06F09AF805D2B0EE0C0A18489B
:1008700080ED140A15E0164890ED140A10EE101AD7
:10088000084606F0ABF941EC180B9FED1E0B53EC3C
:10089000102B05F049FF04D2B8EE0C0A0C4880ED8D
:1008A000140A0B48D0ED140AB0EE600A9FED112A2D
:1008B000F7EE001AB0EE001ADFED0E0A04210E4822
:1008C00002F07CFD052001F037FBBDEC048B10BD70
:1008D000900700207B14AE47E17A943F1F85EB51CF
:1008E000B81E0940C3F548401F85EB51B81E09C02A
:1008F000C3F548C000000000A40300200000000071
:1009000000000C400000000000000CC07047000018
:100910002DE9FF5F0C4615461E460EAF97E8800F87
:1009200016480460002015498860C86008200861E6
:10093000084605764676877680F81B8080F81C90FE
:1009400080F81DA080F81EB01398C877012301F12C
:100950001802009800F02CF870B10223074A1832F0
:100960000649009800F024F830B10423034A1832F5
:100970000249009800F01CF8BDE8FF9F800A0020A3
:1009800072B600BFFEE710B5024692F82030012B88
:1009900001D0022B06D110684069084314686061D9
:1009A000002010BD506A40F4802050620120F8E71A
:1009B000F0B504460D461E4694F820702068836802
:1009C000A86800B900E000BF012F01D0022F7CD140
:1009D00003F0806030B903F0006018B903F0805074
:1009E000002873D0C3F30161022905D9606A40F47D
:1009F000000060620120F0BD012088403060A868DE
:100A000060B9B5F800C0E86840EA4C5C206800F5C1
:100A1000C07000EB0110C0F800C00FE0D5E901C0C4
:100A200040EACC00D5F80CC040EA0C00D4F800C075
:100A30000CF5C07C0CEB011CCCF80000D5F810C004
:100A4000206800F5C07000EB0110C0F804C0287DDC
:100A500001280ED1206800F5C07000EB011040683D
:100A600040F4807C206800F5C07000EB0110C0F8F5
:100A700004C0D079000692F806C040EA0C4092F813
:100A800005C040EA0C2C10794CEA000C206800F5F7
:100A9000C07000EB0110C0F80CC0D078000692F8CE
:100AA00002C040EA0C4092F801C040EA0C2092F8E3
:100AB00000C040EA0C00D4F800C00CF5C07C0CEB80
:100AC000011CCCF80800206801E016E00FE000F5FA
:100AD000C07000EB0110006840F0010C206800F5C8
:100AE000C07000EB0110C0F800C0002083E7606A0E
:100AF00040F40010606201207DE7606A40F48020CD
:100B00006062012077E70000F0B504460A462168DC
:100B100094F82050012D01D0022D7ED1424901F5DB
:100B20000071086840F001000860086820F47C50FB
:100B300008600868566A40EA06200860107D00F0E8
:100B40001F06012000FA06F3C8699843C861A1F5A1
:100B50000071D069C8B9D1F80C029843C1F80C02F1
:100B6000908880B2968940EA064601F51070576970
:100B700040F83760108880B2168940EA064601F5D1
:100B80001070576900EBC7004660D069012819D181
:100B9000D1F80C021843C1F80C02908880B2168874
:100BA00040EA064601F51070576940F837609089B1
:100BB00080B2168940EA064601F51070576900EBCD
:100BC000C7004660906928B9D1F804029843C1F87B
:100BD000040204E0D1F804021843C1F804021069C9
:100BE00028B9D1F814029843C1F8140204E0D1F8EE
:100BF00014021843C1F81402106A012804D1D1F874
:100C00001C021843C1F81C02D1F8000220F00100B8
:100C1000C1F800020020F0BDFFE7606A40F48020C8
:100C200060620120F7E7000000640040704770B583
:100C3000044694F82050012D01D0022D7DD151B9E8
:100C40002068C06800F0030080B9606A40F40010BA
:100C50006062012070BD2068006900F0030028B9BF
:100C6000606A40F4001060620120F3E7206800F53C
:100C7000D87000EB0110006800F0040090609068EC
:100C800040B9206800F5D87000EB01100068400DF5
:100C9000106007E0206800F5D87000EB01100068D4
:100CA000C0085060206800F5D87000EB01100068A3
:100CB00000F00200D060206800F5D87000EB011051
:100CC000406800F00F001061206800F5D87000EB5C
:100CD0000110406800F47F40000A9061206800F530
:100CE000D87000EB01104068000C5061206800F5DE
:100CF000D87000EB011080681870206800F5D8707B
:100D000000EB0110806800F47F40000A58702068F2
:100D100000F5D87000EB0110806800F47F00000C33
:100D20009870206800F5D87000EB01108068000E04
:100D3000D870206800F5D87000E02FE000EB0110BB
:100D4000C0681871206800F5D87000EB0110C06809
:100D500000F47F40000A5871206800F5D87000EB5D
:100D60000110C06800F47F00000C9871206800F545
:100D7000D87000EB0110C068000ED87131B920683E
:100D8000C06840F020002668F06005E02068006937
:100D900040F020002668306100205BE7606A40F484
:100DA00080206062012055E72DE9F05F04460025B0
:100DB000206846692068D0F8049020688768206819
:100DC000D0F80CA02068D0F810B02068D0F81880B7
:100DD00006F00100002855D007F00100C0B1012045
:100DE0002168886007F0020018B1204600F0BDFEBF
:100DF0000EE007F0040010B145F4006508E007F0CC
:100E0000080010B145F4805502E0204600F0ACFE29
:100E100007F48070C8B14FF480702168886007F4CF
:100E2000007018B1204600F0A2FE0EE007F48060CA
:100E300010B145F4005508E007F4006010B145F426
:100E4000804502E0204600F091FE07F48030C8B1F2
:100E50004FF480302168886007F4003018B12046D4
:100E600000F087FE0EE007F4802010B145F4004545
:100E700008E007F4002010B145F4803502E0204678
:100E800000F076FE06F0080038B10AF0100020B13C
:100E900045F4007510202168C86006F0040040B1D8
:100EA0000AF0080028B108202168C860204600F038
:100EB0000DFA06F0020038B12068C06800F00300A7
:100EC00010B1204600F004FA06F0400038B10BF0F3
:100ED000100020B145F4806510202168086106F0FB
:100EE000200040B10BF0080028B1082021680861FB
:100EF000204600F007FE06F0100038B120680069B7
:100F000000F0030010B1204600F0FDFD06F40030B3
:100F100040B109F0100028B1102021684860204637
:100F200000F0F2FD06F4803040B109F0080028B16D
:100F3000082021684860204600F01CFE06F40040AE
:100F400088B309F0040078B306F4807020B108F08B
:100F5000010008B145F0010506F4007020B108F069
:100F6000020008B145F0020506F4806020B108F0E7
:100F7000040008B145F0040506F40060A0B108F0D3
:100F8000700088B108F07000402817D006DC1028E7
:100F90000BD020280CD0302819D10CE0502810D0CC
:100FA000602814D110E01DE019E045F008050FE0BD
:100FB00045F010050CE045F0200509E045F040053E
:100FC00006E045F0800503E045F4807500E000BFD1
:100FD00000BF2068806920F07000216888610420CB
:100FE000216848602DB1606A284360622046FFF79F
:100FF0001DFEBDE8F09F70B504460CB9012070BD20
:1010000094F8200010B9204600F0B0F8206800687D
:1010100040F001002168086001F0A0F805460DE0ED
:1010200001F09CF8401B0A2808D9606A40F400309F
:101030006062052084F820000120E0E72068406815
:1010400000F001000028EBD02068006820F00200CA
:101050002168086001F082F805460DE001F07EF895
:10106000401B0A2808D9606A40F4003060620520FD
:1010700084F820000120C2E72068406800F00200E8
:101080000028EBD1207E012806D12068006840F0BE
:1010900080002168086005E02068006820F080007A
:1010A00021680860607E012806D12068006840F051
:1010B00040002168086005E02068006820F04000DA
:1010C00021680860A07E012806D12068006840F0F1
:1010D00020002168086005E02068006820F02000FA
:1010E00021680860E07E012806D12068006820F0B1
:1010F00010002168086005E02068006840F01000DA
:1011000021680860207F012806D12068006840F02F
:1011100008002168086005E02068006820F00800E9
:1011200021680860607F012806D12068006840F0CF
:1011300004002168086005E02068006820F00400D1
:1011400021680860D4E90201084321690843616904
:1011500008436168491E08432168C8610020606235
:10116000012084F82000002049E7000010B586B077
:101170000446142101A8FFF7A0F94E4920688842CF
:1011800041D14D480068401C4B4908600846006842
:1011900001280FD100BF002000904848006840F0AF
:1011A0000070464908600846006800F00070009032
:1011B00000BF00BF00BF002000904048103800680A
:1011C00040F008003D49103908600846006800F00A
:1011D0000800009000BF00BF032001900220029091
:1011E00000200390032004900920059001A93448B1
:1011F00000F0B6FE00220521142001F03FF8142073
:1012000001F02CF854E02F492068884250D100BFEB
:10121000002000902948006840F08060274908605D
:101220000846006800F08060009000BF00BF2248C0
:101230000068401C204908600846006801280FD15A
:1012400000BF002000901D48006840F000701B495E
:1012500008600846006800F00070009000BF00BF02
:1012600000BF0020009015481038006840F00200D0
:101270001249103908600846006800F0020000902A
:1012800000BF00BF60200190022002900020039068
:10129000032004900920059001A90B4800F060FE8E
:1012A00000220521402000F0E9FF402000F0D6FF99
:1012B00006B010BD006400400C0000204038024021
:1012C000000C02400068004000040240704700002B
:1012D00010B58AB00446FE48B0F90200FC49B1F9E5
:1012E000001088420FD0FA48408801280BD1002016
:1012F00007E0002100EB4002F64B03EB8202518134
:10130000401C0828F5DB01AB03AA00212046FFF7AB
:101310008EFCF14884427DD10398012843D19DF889
:1013200006009DF8051040EA0120EC4908609DF890
:10133000070000019DF8081040EA2110E7494860C5
:101340009DF809009DF8081001F00F0140EA012006
:10135000E249886008681021F2EE090ABAEE090A2B
:1013600004F04DFBBDEEC00ADC4880ED030A0146E7
:1013700048680C21DFEDDA0A9FEDDA0A04F03FFB42
:10138000BDEEC00AD54880ED040A014688680C21EC
:10139000F3EE020ABBEE020A04F031FBBDEEC00A16
:1013A000CE4880ED050A0398022845D19DF8060035
:1013B0009DF8051040EA0120CB4908609DF8070020
:1013C00000019DF8081040EA2110C74948609DF8C7
:1013D00009009DF8081001F00F0140EA0120C24900
:1013E000886008681021F2EE090ABAEE090A04F0D2
:1013F00006FBBDEEC00ABC4880ED030A0146486802
:101400000C21DFEDB70A9FEDB70A04F0F8FABDEE44
:10141000C00A00E0F9E0B44880ED040A014688689B
:101420000C21F3EE020ABBEE020A04F0E8FABDEE6C
:10143000C00AAD4880ED050A0398A0F2012030B142
:1014400001287DD002287CD003287BD195E0039829
:10145000C01CA64908700846007800EB40009D4972
:1014600031F8200000B2A149097801EB4101994A05
:1014700002EB810108819DF805009DF8041040EA07
:1014800001209A49097801EB410122F821009DF8D9
:1014900007009DF8061040EA012000B29349097840
:1014A00001EB410102EB810148809DF809009DF8A4
:1014B000081040EA012000B28C49097801EB410193
:1014C00002EB810188809DF80A008849097801EBC8
:1014D000410102EB810188718448007800EB4000F3
:1014E000114631F820008149097801EB410102EBF6
:1014F0008101B1F90810401A41F28831884210DDAB
:101500007A48007800EB4000114601EB80004089EA
:10151000401E00B27549097801EB410102EB8101DF
:1015200048817248007800EB40006A4931F8200099
:101530006E49097801EB4101664A02EB810102E044
:1015400019E019E05FE0B1F90810401A68498842D3
:1015500010DA6648007800EB4000114601EB80008D
:101560004089401C00B26149097801EB410102EB5E
:101570008101488148E000BF00BF0398C01C5D495D
:1015800008700846007800EB4000524931F820000E
:1015900000B25849097801EB41014E4A02EB810142
:1015A00008819DF805009DF8041040EA012051498A
:1015B000097801EB410122F821009DF807009DF810
:1015C000061040EA012000B24A49097801EB4101C6
:1015D00002EB810148809DF809009DF8081040EA5F
:1015E000012000B24349097801EB410102EB81017E
:1015F00088809DF80A003F49097801EB410102EB20
:101600008101887100E000BF00BF3B4884425ED189
:101610000398A0F20120002872D0012871D002287E
:1016200002D003286ED1CCE10398401E33490870E4
:101630000846007800EB4000264931F8200000B24F
:101640002E49097801EB4101224A02EB8101088110
:101650009DF805009DF8041040EA0120274909780B
:1016600001EB410122F821009DF807009DF80610CA
:1016700040EA012000B22149097801EB410102EB67
:10168000810148809DF809009DF8081040EA01207A
:1016900000B21A49097801EB410102EB810188800F
:1016A0009DF80A001549097801EB410102EB81011F
:1016B00088711248007800EB4000114631F8200094
:1016C0000E49097801EB410102EB81011BE00AE2BE
:1016D0001A00002050060020A4030020F00600207D
:1016E00000003442000034C218070020220000200D
:1016F00078ECFFFF23000020CC0300202400002012
:101700003FE0CEE0EDE1B1F90810401A41F2883136
:10171000884210DDF548007800EB4000114601EBEF
:1017200080004089401E00B2F049097801EB410178
:1017300002EB81014881ED48007800EB4000EC4964
:1017400031F82000E949097801EB4101E84A02EB50
:101750008101B1F90810401AE649884210DAE348DD
:10176000007800EB4000114601EB80004089401CEE
:1017700000B2DE49097801EB410102EB81014881A9
:1017800000BF0398401EDC4908700846007800EB53
:101790004000D74931F8200000B2D749097801EB61
:1017A0004101D34A02EB810108819DF805009DF8B3
:1017B000041040EA0120D049097801EB410122F8E8
:1017C00021009DF807009DF8061040EA012000B2B4
:1017D000C949097801EB410102EB810148809DF87C
:1017E00009009DF8081040EA012000B2C2490978BA
:1017F00001EB410102EB810188809DF80A00BE499E
:10180000097801EB410102EB81018871BA48007847
:1018100000EB4000114631F82000B749097801EB90
:10182000410102EB8101B1F90810401A41F28831FF
:10183000884210DDB048007800EB4000114601EB13
:1018400080004089401E00B2AB49097801EB41019C
:1018500002EB81014881A848007800EB4000A449D0
:1018600031F82000A449097801EB4101A04A02EBBC
:101870008101B1F90810401A9E49884210DA9E4849
:10188000007800EB4000114601EB80004089401CCD
:1018900000B29949097801EB410102EB81014881CD
:1018A00000BF0398401E954908700846007800EB79
:1018B00040008F4931F8200000B29049097801EBCF
:1018C00041018B4A02EB810108819DF805009DF8DA
:1018D000041040EA01208949097801EB410122F80E
:1018E00021009DF807009DF8061040EA012000B293
:1018F0008249097801EB410102EB810148809DF8A2
:1019000009009DF8081040EA012000B27B490978DF
:1019100001EB410102EB810188809DF80A007749C3
:10192000097801EB410102EB81018871734800786D
:1019300000EB4000114631F820007049097801EBB6
:10194000410102EB8101B1F90810401A41F28831DE
:10195000884210DD6948007800EB4000114601EB39
:1019600080004089401E00B26449097801EB4101C2
:1019700002EB810148816148007800EB40005C493E
:1019800031F820005D49097801EB4101584A02EB2A
:101990008101B1F90810401A5649884210DA5748B7
:1019A000007800EB4000114601EB80004089401CAC
:1019B00000B25249097801EB410102EB81014881F3
:1019C00000BF0398401E4E4908700846007800EB9F
:1019D0004000474931F8200000B24949097801EB3D
:1019E0004101434A02EB810108819DF805009DF801
:1019F000041040EA01204249097801EB410122F834
:101A000021009DF807009DF8061040EA012000B271
:101A10003B49097801EB410102EB810148809DF8C7
:101A200009009DF8081040EA012000B23449097805
:101A300001EB410102EB810188809DF80A003049E9
:101A4000097801EB410102EB810188712C48007893
:101A500000EB4000114631F820002949097801EBDC
:101A6000410102EB8101B1F90810401A41F28831BD
:101A7000884210DD2248007800EB4000114601EB5F
:101A800080004089401E00B21D49097801EB4101E8
:101A900002EB810148811A48007800EB40001449AC
:101AA00031F820001649097801EB4101104A02EB98
:101AB0008101B1F90810401A0E49884210DA104825
:101AC000007800EB4000114601EB80004089401C8B
:101AD00000B20B49097801EB410102EB8101488119
:101AE00000BF00BF00BF0AB010BD000024000020EE
:101AF0005006002078ECFFFF250000202600002083
:101B00002700002070477047704770B5044694F86E
:101B10002000012822D1022084F8200020680068DB
:101B200020F001002168086000F018FB05460DE078
:101B300000F014FB401B0A2808D9606A40F400300A
:101B40006062052084F82000012070BD2068406894
:101B500000F001000028EBD16062F6E7606A40F413
:101B6000002060620120F0E77047704770477047BF
:101B70007047704770470000F8B504460020009099
:101B80008C4800684FF41651B0FBF1F7A56D2E6834
:101B900094F85C1008208840304098B120680068B4
:101BA00000F0040070B12068006820F00400216893
:101BB000086094F85C1008208840A860606D40F0D0
:101BC0000100606594F85C1001208840304068B1E5
:101BD0002068406900F0800040B194F85C1001205A
:101BE0008840A860606D40F00200606594F85C1069
:101BF00004208840304068B12068006800F002008E
:101C000040B194F85C1004208840A860606D40F0FA
:101C10000400606594F85C1010208840304078B370
:101C20002068006800F0080050B394F85C101020A1
:101C30008840A8602068006800F4802080B1206897
:101C4000006800F4002028B9206CC8B12046216C3F
:101C5000884715E0A06C98B12046A16C88470FE03A
:101C60002068006800F4807028B92068006820F0BF
:101C7000080021680860206C10B12046216C88475C
:101C800094F85C10202088403040002865D02068FF
:101C9000006800F0100000285FD094F85C1020204D
:101CA0008840A86094F83500052828D1206800688D
:101CB00020F01600216808602068406920F080004C
:101CC00021684861206C08B9A06C28B120680068C0
:101CD00020F008002168086094F85C103F208840DC
:101CE000A860012084F8350000BF002084F834008B
:101CF00000BF206D10B12046216D8847F8BD2068D7
:101D0000006800F4802080B12068006800F40020A2
:101D100028B9606C10B12046616C88471DE0E06B0B
:101D2000D8B12046E16B884717E02068006800F4CE
:101D3000807068B92068006820F010002168086091
:101D4000012084F8350000BF002084F8340000BF73
:101D5000E06B10B12046E16B8847606D38B3606D71
:101D600000F00100F0B1052084F83500206800681B
:101D700020F001002168086000BF0098401C00901E
:101D8000B84200D905E02068006800F00100002892
:101D9000F3D100BF012084F8350000BF002084F893
:101DA000340000BFE06C10B12046E16C884700BFF2
:101DB000A4E70000E40000202DE9F04104460025DE
:101DC00000F0CCF9074614B90120BDE8F081606A43
:101DD00000B100BF022084F8350000BF002084F865
:101DE000340000BF2068006820F00100216808600E
:101DF0000AE000F0B3F9C01B052805D92020606572
:101E0000032084F83500E0E72068006800F0010056
:101E10000028EED12068056821480540D4E9010179
:101E20000843E16808432169084361690843A169DF
:101E30000843E1690843216A08430543606A0428AE
:101E400003D1D4E90B0108430543206805602068ED
:101E5000456925F00705606A0543606A04280DD1CD
:101E6000A06A0543E06A48B12046FEF7C7FB28B1E7
:101E700040206065012084F83500A6E720684561B0
:101E80002046FEF7A1FB064694F85C103F208840F0
:101E9000B06000206065012084F83500002094E7E0
:101EA0003F8010F02DE9F04704460D4616461F46C8
:101EB0004FF00008D4F8589000BF94F8340001287F
:101EC00002D10220BDE8F087012084F8340000BF71
:101ED00094F83500012825D1022084F8350000202F
:101EE00060653B46324629462046FEF7DCFB94F807
:101EF0005C103F208840C9F808002068006840F066
:101F0000160021680860206C28B12068006840F045
:101F10000800216808602068006840F0010021681E
:101F2000086006E000BF002084F8340000BF4FF0D6
:101F300002084046C6E7000070B5044600F00EF9FE
:101F400006462546681C10B104480078054400BFC9
:101F500000F004F9801BA842FAD370BDE000002015
:101F6000F8B502460B460025002400200021D5E0EC
:101F7000012606FA01F51E6806EA0504AC4274D192
:101F80001E7906F00306012E04D01E7906F0030622
:101F9000022E13D190684F000326BE40B0434F007D
:101FA000DE68BE4030439060506801268E40B043EA
:101FB0001E79C6F300168E40304350601E7906F03D
:101FC0000306032E09D0D0684F000326BE40B0435D
:101FD0004F009E68BE403043D0601E7906F0030675
:101FE000022E13D1CF0802F1200656F827004E0723
:101FF000F70E0F26BE40B0434F07FF0E1E69BE40CE
:102000003043CF0802F1200646F8270010684F0041
:102010000326BE40B0431E7906F003064F00BE40C3
:10202000304310605E6806F44036002E75D000BF65
:10203000002600963B4E366846F48046394F3E6097
:102040003E46366806F48046009600BF00BF364E16
:102050008F0856F827008E07370F0F26BE40B04373
:10206000324EB24202D1002624E056E0304EB24257
:1020700001D101261EE02F4EB24201D1022619E005
:102080002D4EB24201D1032614E02C4EB24201D1B2
:1020900004260FE02A4EB24201D105260AE0294E5D
:1020A000B24201D1062605E0274EB24201D10726F1
:1020B00000E008268F073F0FBE4030431A4E8F08BE
:1020C00046F82700214E3068A0435E6806F480364B
:1020D00006B120431D4E3060361D3068A0435E6857
:1020E00006F4003606B12043184E361D3060361D0A
:1020F0003068A0435E6806F4801606B12043134E94
:1021000008363060361D3068A0435E6806F400165D
:1021100006B120430D4E0C363060491C1029FFF4E7
:1021200027AFF8BD443802400838014000000240A3
:102130000004024000080240000C0240001002406F
:102140000014024000180240001C0240003C014004
:102150000AB1816101E00B048361704701480068A6
:1021600070470000D8000020034800680349097840
:102170000844014908607047D8000020E0000020B2
:1021800010B50D48006840F400700B49086008461F
:10219000006840F4806008600846006840F4807081
:1021A0000860032000F0A8F80F2000F007F800F006
:1021B0002BF8002010BD0000003C024070B5044622
:1021C0000E4800784FF47A71B1FBF0F00C490968C1
:1021D000B1FBF0F5284600F031FC08B1012070BDDC
:1021E000102C07D200222146501E00F047F8054867
:1021F000046001E00120F2E70020F0E7E0000020A9
:10220000E4000020DC00002008B500BF00200090A2
:102210001148006840F480400F4908600846006893
:1022200000F48040009000BF00BF00BF002000907D
:10223000081F006840F08050091F086008460068C9
:1022400000F08050009000BF00BF00220F21901EC0
:1022500000F014F808BD000044380240014608466A
:10226000002809DB00F01F0301229A4043099B006C
:1022700003F1E023C3F8002100BF70472DE9F05FB0
:1022800080460D461646002702F026F907463946D5
:102290002A46334601F00700C0F1070ABAF1040FDD
:1022A00002D94FF0040A01E0C0F1070AD14600F15B
:1022B000040ABAF1070F02D24FF0000A01E0A0F1C0
:1022C000030AD4464FF0010A0AFA09FAAAF1010AF0
:1022D0000AEA020A0AFA0CFA4FF0010B0BFA0CFB9D
:1022E000ABF1010B0BEA030B4AEA0B042146404613
:1022F00002F0FAF8BDE8F09F00BF00F00702064BBD
:1023000019684FF6FF031940044B0B4343EA0221BF
:10231000014B196000BF70470CED00E00000FA05AA
:1023200070B504460D460CB9012070BD58480068D0
:1023300000F00700A84209D255490D700846006810
:1023400000F00700A84201D00120EEE7207800F05D
:10235000020002281DD1207800F00400042805D1D5
:102360004C48006840F4E0504A490860207800F08A
:102370000800082805D14748006840F460404549F6
:1023800008604448006820F0F000A1680843414913
:102390000860207800F00100A8B36068012807D128
:1023A0003C4808380068C0F34040B8B90120BCE799
:1023B0006068022802D06068032807D135480838D1
:1023C0000068C0F3406048B90120AEE731480838E2
:1023D0000068C0F3400008B90120A6E72D48006856
:1023E00020F00300616808432A490860FFF7B6FE41
:1023F000064609E0FFF7B2FE801B41F288318842B1
:1024000002D9032091E707E02248006800F00C00A1
:102410006168B0EB810FEDD11D48006800F0070046
:10242000A84209D91A490D700846006800F0070053
:10243000A84201D0012078E7207800F004000428A9
:1024400007D11448006820F4E050E16808431149BE
:102450000860207800F00800082808D10D480068BE
:1024600020F46040216940EAC1000A49086000F098
:102470003FF808490968C1F30311074A515CC84095
:102480000649086006480068FFF798FE00204CE700
:10249000003C024008380240306D0008E400002093
:1024A000DC0000200148006870470000E4000020C4
:1024B00000B5FFF7F7FF04490968C1F38221034A19
:1024C000515CC84000BD000008380240406D000863
:1024D00000B5FFF7E7FF04490968C1F34231034A39
:1024E000515CC84000BD000008380240406D000843
:1024F0002DE9F047002400250026A1462548006864
:1025000000F00C0020B1042805D008283AD105E0DD
:10251000DFF8849039E0DFF8849036E01D48001F32
:10252000006800F03F041B48001F006800F48000B2
:1025300078B11A481749091F0968C1F38811A0FB2F
:1025400001700146224600233846FDF70DFF05467F
:102550000EE011480F49091F0968C1F38811A0FB5B
:1025600001700146224600233846FDF7FDFE054670
:102570000848001F0068C0F30140401C4600B5FB3E
:10258000F6F902E0DFF8109000BF00BF4846BDE852
:10259000F0870000083802400024F400001BB70058
:1025A000F8B504460CB90120F8BD207800F0010010
:1025B000002874D0F948006800F00C0004280DD001
:1025C000F648006800F00C00082813D1F348001FFB
:1025D000006800F48000B0F5800F0BD1EF48083898
:1025E0000068C0F34040002859D06068002856D1E8
:1025F0000120D9E700BF6068B0F5803F08D1E74807
:102600000838006840F48030E449083908601EE06A
:102610006068B0F5A02F0DD1E0480838006840F49C
:102620008020DE49083908600846006840F48030A0
:1026300008600CE0D9480838006820F48030D74999
:10264000083908600846006820F48020086000BF50
:10265000606890B1FFF782FD054606E0FFF77EFD5A
:10266000401B642801D903209EE7CC480838006845
:10267000C0F340400028F1D011E0FFF76FFD0546A0
:1026800006E0FFF76BFD401B642801D903208BE7B0
:10269000C24808380068C0F340400028F1D12078D3
:1026A00000F0020002285FD1BC48006800F00C0076
:1026B00058B1BA48006800F00C0008281CD1B7488F
:1026C000001F006800F48000B0B9B4480838006802
:1026D000C0F3400020B1E068012801D0012063E789
:1026E000AE480838006820F0F800216940EAC100CF
:1026F000AA490839086037E0E06800B30120A8491A
:102700000860FFF72BFD054606E0FFF727FD401B9D
:10271000022801D9032047E7A04808380068C0F321
:1027200040000028F1D09D480838006820F0F800EB
:10273000216940EAC10099490839086014E0002085
:1027400097490860FFF70AFD054606E0FFF706FD1A
:10275000401B022801D9032026E79048083800686A
:10276000C0F340000028F1D1207800F008000828CC
:102770002CD16069A8B101208A490860FFF7EEFCFE
:10278000054606E0FFF7EAFC401B022801D90320BA
:102790000AE782486C300068C0F340000028F1D09E
:1027A00014E000207F490860FFF7D8FC054606E0EA
:1027B000FFF7D4FC401B022801D90320F4E6774838
:1027C0006C300068C0F340000028F1D1207800F0A0
:1027D0000400042870D1002770483830006800F0E9
:1027E000805090B900BF002000906C4838300068DD
:1027F00040F080506949383108600846006800F0B0
:102800008050009000BF00BF01276748006800F4B7
:102810008070B0B96448006840F480706249086014
:10282000FFF79CFC054606E0FFF798FC401B0228DA
:1028300001D90320B8E65C48006800F480700028E5
:10284000F2D000BFA068012808D154486830006861
:1028500040F001005149683108601DE0A06805287A
:102860000DD14E486830006840F004004B49683193
:1028700008600846006840F0010008600CE0474826
:102880006830006820F0010044496831086008465B
:10289000006820F00400086000BFA068A8B1FFF73E
:1028A0005DFC054609E0FFF759FC401B41F2883109
:1028B000884202D9032077E626E03848683000686D
:1028C000C0F340000028EED013E0FFF747FC0546B8
:1028D00008E0FFF743FC401B41F28831884201D9F0
:1028E000032061E62D4868300068C0F340000028EE
:1028F000EFD1012F07D129483830006820F08050EF
:1029000026493831086000BFA069002845D0234817
:10291000006800F00C0008285DD0A069022845D1AD
:1029200000201F490866FFF719FC054606E0FFF77F
:1029300015FC401B022801D9032035E6174808384A
:102940000068C0F340600028F1D1D4E907010843D2
:10295000616A40EA81110122A06AC2EB500041EA9B
:1029600000412C20005D41EA00600C49091F08600D
:1029700001200B490866FFF7F1FB054606E0FFF76B
:10298000EDFB401B022801D903200DE6034808385F
:102990000068C0F340600028F1D049E008380240E8
:1029A00000004742800E474200700040002021494D
:1029B0000866FFF7D3FB054606E0FFF7CFFB401B99
:1029C000022801D90320EFE51B480068C0F34060EE
:1029D0000028F2D12CE0A069012800D1E4E51648D6
:1029E000001D0668A069012820D006F48001E06976
:1029F00081421BD106F03F01206A814216D147F681
:102A0000C0703040616AB0EB811F0FD106F44031D5
:102A10000122A06AC2EB5000B1EB004F06D106F0D4
:102A200070612C20005DB1EB006F01D00120BBE58F
:102A30000020B9E5000047420038024070B5044666
:102A40002546681EB0F1807F01D301200FE0681E8B
:102A50004FF0E02148610F214FF0FF3001F044FDBD
:102A600000204FF0E021886107200861002070BD40
:102A700010B50346002200BF93F83C00012801D1A5
:102A8000022010BD012083F83C0000BF22F0FF00AF
:102A9000CC6840EA040222F440708C6840EA0402E8
:102AA00022F480604C6840EA040222F400600C6862
:102AB00040EA040222F480500C6940EA040222F445
:102AC00000504C6940EA040222F48040CC6940EA9C
:102AD00004021868426400BF002083F83C0000BF75
:102AE00000BFCEE730B502460B4600BF92F83C006F
:102AF000012801D1022030BD012082F83C0000BF36
:102B0000022082F83D00106844681068816824F053
:102B100070041868044310684460184D1068A84297
:102B20001BD01068B0F1804F17D0154D1068A84227
:102B300013D0144D1068A8420FD0134D1068A8424E
:102B40000BD0124D1068A84207D0114D1068A84252
:102B500003D0104D1068A84205D121F080015868BB
:102B6000014310688160012082F83D0000BF002011
:102B700082F83C0000BF00BFBDE70000000001403C
:102B80000004004000080040000C00400004014028
:102B9000004001400018004010B504460CB9012067
:102BA00010BD94F83D0028B9002084F83C00204670
:102BB00000F026F8022084F83D00211D206800F076
:102BC000A1FF012084F8460000BF84F83E000121E7
:102BD0003F200155402001554120015500BF00BF55
:102BE000012084F84200432001554420015545202E
:102BF000015500BF012084F83D000020D0E700000F
:102C000008B50A4A016891420FD100BF0021009126
:102C10000749096841F00101054A11601146096838
:102C200001F00101009100BF00BF08BD000001409C
:102C300044380240014691F83D00012801D00120AE
:102C40007047022081F83D001A4B086898421BD05B
:102C50000868B0F1804F17D0174B0868984213D01E
:102C6000164B086898420FD0154B086898420BD055
:102C7000144B0868984207D0134B0868984203D059
:102C8000124B086898420CD10868806800F007026F
:102C9000062A0CD00868006840F001000B68186034
:102CA00005E00868006840F001000B68186000202B
:102CB000C6E700000000014000040040000800409A
:102CC000000C00400004014000400140001800409A
:102CD0002DE9F04104460D46002700BF94F83C0062
:102CE000012802D10220BDE8F081012084F83C00D7
:102CF00000BF022084F83D002068866826F0770631
:102D000026F47F46206886602868502833D00CDC83
:102D1000202850D004DC00284BD0102851D149E0A5
:102D2000302849D040284CD139E060282DD0702877
:102D300007D0B0F5805F03D0B0F5005F41D10DE062
:102D400041E0D5E902136A68206800F058FF206866
:102D5000866846F077062068866034E0D5E902137D
:102D60006A68206800F04BFF2068806840F480406B
:102D70002168886027E0EA686968206801F030F817
:102D80005021206800F046FF1DE0EA68696820686D
:102D900001F039F86021206800F03CFF13E0EA6898
:102DA0006968206801F01CF84021206800F032FFBB
:102DB00009E000BF00BF00BF2968206800F02AFFBB
:102DC00001E0012700BF00BF012084F83D0000BFE3
:102DD000002084F83C0000BF384684E710B586B078
:102DE0000446142101A8FDF768FB124920688842B7
:102DF0001DD100BF002000900F48006840F0100077
:102E00000D4908600846006800F01000009000BFFF
:102E100000BF4FF420600190022002900020039038
:102E200004900120059001A90448FFF799F806B025
:102E300010BD000000000140303802400010024088
:102E40002DE9F04104460D461646002700BF94F8D0
:102E50003C00012802D10220BDE8F081012084F865
:102E60003C0000BF36B1042E1BD0082E31D00C2EF2
:102E70005ED145E02946206800F0D6FE20688069D2
:102E800040F00800216888612068806920F0040013
:102E90002168886120688069296908432168886100
:102EA00048E02946206800F0F7FE2068806940F479
:102EB0000060216888612068806920F48060216852
:102EC000886120688069296940EA01202168886159
:102ED00030E02946206800F01DFF2068C06940F0FE
:102EE00008002168C8612068C06920F004002168DA
:102EF000C8612068C069296908432168C86119E070
:102F00002946206800F042FF2068C06940F4006054
:102F10002168C8612068C06920F480602168C861A8
:102F20002068C069296940EA01202168C86101E080
:102F3000012700BF00BF00BF002084F83C0000BF95
:102F4000384689E710B504460CB9012010BD94F845
:102F50003D0028B9002084F83C00204600F025F808
:102F6000022084F83D00211D206800F0CBFD0120E7
:102F700084F8460000BF84F83E0001213F2001553F
:102F8000402001554120015500BF00BF012084F8B9
:102F9000420043200155442001554520015500BF02
:102FA000012084F83D000020D0E7704770B504464A
:102FB0000D4615B994F83E000BE0042D02D13F20D8
:102FC000005D06E0082D02D14020005D01E04120B7
:102FD000005D012801D0012070BD1DB9022084F8D8
:102FE0003E000EE0042D03D102213F20015508E0F0
:102FF000082D03D102214020015502E00221412089
:10300000015501222946206800F0E8FD2349206887
:10301000884203D022492068884201D1012000E083
:10302000002028B12068406C40F4004021684864CA
:103030001A49206888421BD02068B0F1804F17D011
:1030400018492068884213D01749206888420FD059
:103050001649206888420BD011492068884207D061
:1030600013492068884203D01249206888420CD155
:103070002068806800F00706062E0CD020680068E3
:1030800040F001002168086005E02068006840F019
:1030900001002168086000209EE700000000014058
:1030A000000401400004004000080040000C004003
:1030B00000400140001800407047704710B50446BA
:1030C0000CB9012010BDA06900B100E000BF94F868
:1030D0003D0028B9002084F83C00204600F028F884
:1030E000242084F83D002068C06820F40050216846
:1030F000C860204600F074FF2068006920F490400A
:10310000216808612068406920F02A002168486130
:103110002068C06840F400502168C8600020206426
:10312000202084F83D0084F83E000020CAE700001B
:1031300010B586B00446142101A8FDF7BEF98049F8
:10314000206888426DD100BF002000907D48006853
:1031500040F010007B4908600846006800F010004D
:10316000009000BF00BF00BF0020009075481438D9
:10317000006840F00200734914390860084600688E
:1031800000F00200009000BF00BF00BF00200090D0
:103190000846006840F0010008600846006800F03A
:1031A0000100009000BF00BF80200190022002902B
:1031B00000200390032004900720059001A9624895
:1031C000FEF7CEFE4FF40070019002200290002026
:1031D0000390032004900720059001A95B48FEF7A7
:1031E000BFFE5B485B4908604FF00060486000210B
:1031F00058488160C1604FF48061016100214161E4
:103200008161C1614FF44031016200214162FEF7EA
:10321000D3FD08B1FDF7B4FB00BF4E48A063846343
:103220008BE04D492068884252D100BF00200090B9
:103230004448001F006840F480204249091F08608C
:103240000846006800F48020009000BF00BF00BF67
:10325000002000903B481438006840F004003949D1
:10326000143908600846006800F00400009000BFB0
:1032700000BF4FF4406001900220029000200390B4
:10328000032004900720059001A93448FEF768FE4A
:103290003348344908604FF00060486000213148ED
:1032A0008160C1604FF480610161002141618161F1
:1032B000C1614FF44031016200214162FEF77CFDA3
:1032C00008B1FDF75DFB00BF2648A063846334E0CE
:1032D00025492068884230D100BF0020009019485D
:1032E000006840F02000174908600846006800F0B8
:1032F0002000009000BF00BF00BF002000901148D8
:103300001438006840F040000E491439086008463F
:10331000006800F04000009000BF00BF4FF4844000
:1033200001900220029000200390032004900820C6
:10333000059001A90D48FEF713FE06B010BD000070
:1033400000100140443802400004024000000240E6
:103350004064024008050020004800400008024088
:103360002860024068050020001401400018024057
:1033700070B504460D46164694F83E00202816D136
:1033800005B10EB9012070BD00BF94F83C000128C2
:1033900001D10220F7E7012084F83C0000BF0020A3
:1033A000206332462946204600F030FFEBE702203A
:1033B000E9E77047704700BFFEE700002DE9F047DE
:1033C0002DED068B82460C46B0EE40AAB0EE608A28
:1033D000F0EE418AB0EE619AF0EE429A384804600D
:1033E000002037498860C860082008611020B2EECC
:1033F000091AFAEE090AB0EE4A0A01F0CCF885B2D1
:103400000C209FED301ADFED300AB0EE480A01F0D3
:10341000C2F886B20C209FED2D1ADFED2D0AB0EE1A
:10342000680A01F0B8F887B20C20B1EE041ADFED9B
:10343000280AB0EE490A01F0AEF81FFA80F80C2015
:10344000B3EE021AFBEE020AB0EE690A01F0A3F82D
:103450001FFA80F928121A49087608464576C6F3FD
:10346000071181763007000E40EA27211448C17603
:103470000777C8F3071141774FEA0870000E40EA5A
:1034800029210F48817780F81F90012300F118024D
:1034900001465046FDF78CFA70B10223084A1832F3
:1034A00007495046FDF784FA30B10423044A183224
:1034B00003495046FDF77CFABDEC068BBDE8F0876A
:1034C000200A002000003442000034C20000FA4309
:1034D0000000000010B50E480E4908600320486047
:1034E00000210C488160C1604FF4102101614FF44C
:1034F000001141610021017641768176C176017724
:103500004177FDF778FD08B1FDF73AFA10BD0000EC
:1035100000640040A403002010B50E480E49086066
:103520000320486000210C488160C1604FF41021E5
:1035300001614FF4001141610021017641768176ED
:10354000C17601774177FDF756FD08B1FDF718FA0E
:1035500010BD000000680040CC03002008B500BF8B
:10356000002000901648006840F4001014490860DC
:103570000846006800F40010009000BF00BF00BFC4
:10358000002000900846006840F48000086008466B
:10359000006800F48000009000BF00BF00220521F9
:1035A0000C20FEF76BFE0C20FEF758FE00220521D2
:1035B0003A20FEF763FE3A20FEF750FE08BD0000F9
:1035C0003038024000B595B01C2212490EA8FCF715
:1035D00042FF00210EA801F095FE0F4908601C2251
:1035E0000C491C3107A8FCF736FF002107A801F0A1
:1035F00089FE0A4908601C22064938316846FCF7F2
:103600002AFF0021684601F07DFE0549086015B0DB
:1036100000BD0000D46C0008000000200400002061
:103620000800002000B587B0142102A8FCF745FF70
:1036300000BF002001906948006840F0020067491F
:1036400008600846006800F00200019000BF00BF5B
:1036500000BF002001900846006840F0400008606C
:103660000846006800F04000019000BF00BF00BFA6
:10367000002001900846006840F0010008600846FC
:10368000006800F00100019000BF00BF00BF0020F3
:1036900001900846006840F008000860084600688D
:1036A00000F00800019000BF00BF00BF00200190A3
:1036B0000846006840F0040008600846006800F012
:1036C0000400019000BF00BF00BF00200190084629
:1036D000006840F4807008600846006800F480705C
:1036E000019000BF00BF00BF0020019008460068A5
:1036F00040F0800008600846006800F080000190FB
:1037000000BF00BF00BF002001900846006840F0E5
:10371000200008600846006800F02000019000BF0B
:1037200000BF00BF002001900846006840F0100074
:1037300008600846006800F01000019000BF00BF5C
:10374000002280212648FEF703FD00224FF480412D
:103750002448FEF7FDFC8020029001200390002009
:103760000490059002A91E48FEF7FAFB0220029081
:10377000002003900120049002A91B48FEF7F0FBF3
:103780000120029000200390049002A91748FEF740
:10379000E7FB4FF440500290022003900020049079
:1037A00002A91048FEF7DCFB4FF480400290012094
:1037B000039000200490059002A90A48FEF7D0FB70
:1037C0004FF400400290002003900120049002A9D1
:1037D0000448FEF7C5FB07B000BD000030380240CA
:1037E0000020024000040240001402400000024099
:1037F00000B595B0002011901290139014900F9086
:1038000010901C2108A8FCF758FE20216846FCF700
:1038100054FE304830490860A720486000212E48F7
:10382000816044F61F61C1600021016141618161D5
:10383000FFF7B2F908B1FDF7A3F84FF480501190EB
:1038400011A92548FFF744FA08B1FDF799F8224875
:10385000FFF778FB08B1FDF793F800200F90109068
:103860000FA91D48FFF73EF908B1FDF789F8602060
:1038700008904FF4FA60099000200A900B900C9089
:103880000D900E90002208A91348FFF7D9FA08B14D
:10389000FDF776F8042208A90F48FFF7D1FA08B11E
:1038A000FDF76EF8002000900190029003900490C4
:1038B0004FF4005005900020079069460648FFF736
:1038C000D7F808B1FDF75CF80348FFF787FA15B0A1
:1038D00000BD000000000140F403002010B50B48BB
:1038E0000B4908604FF4E1304860002108488160CE
:1038F000C16001610C21416100218161C161FFF75B
:10390000DDFB08B1FDF73CF810BD000000100140E0
:103910003C04002010B50A480A4908600A4848607B
:10392000002108488160C16001610C2141610021D2
:103930008161C161FFF7C2FB08B1FDF721F810BD3D
:103940000048004080040020A086010010B50B480C
:103950000B4908604FF4E13048600021084881605D
:10396000C16001610C21416100218161C161FFF7EA
:10397000A5FB08B1FDF704F810BD000000140140DC
:10398000C404002000BFFEE700BFFEE710B5234BD4
:103990001B685B6943F04003204C246863611F4B44
:1039A0001B68DB6843F010031C4C2468E3601C4B6D
:1039B0001B681B6823F00103194C2468236007E08F
:1039C000174B1B681B6823F00103154C2468236008
:1039D000134B1B681B6803F00103002BF0D1114B44
:1039E0000F4C2468A3600E4B1B68D8600C4B1B68FF
:1039F00019610B4B1B685A60094B1B681B6843F429
:103A00008023074C24682360054B1B681B6843F028
:103A10000103034C2468236010BD000080040020D3
:103A2000680500200448004010B5FEF79DFB02F039
:103A3000EFFA012801D002F041FA10BD00B593B0B1
:103A4000302107A8FCF739FD142102A8FCF735FD49
:103A500000BF002001902448006840F080502249B7
:103A600008600846006800F08050019000BF00BF69
:103A700000BF002001901D48006840F480401B49B1
:103A800008600846006800F48040019000BF00BF55
:103A9000012007900004089002200D9041050E912E
:103AA00006210F91A8211091022111910421129158
:103AB00007A8FEF775FD08B1FCF762FF0F20029022
:103AC00002200390002004904FF4A05005904FF482
:103AD00080500690052102A8FEF722FC08B1FCF7F1
:103AE0004FFF13B000BD000040380240007000409E
:103AF0000348006840F47000014908607047000006
:103B000088ED00E010B50268294B98420ED0B0F164
:103B1000804F0BD0274B984208D0274B984205D0B6
:103B2000264B984202D0264B984203D122F07002D5
:103B30004B681A431E4B984220D0B0F1804F1DD0E5
:103B40001C4B98421AD01C4B984217D01B4B9842E2
:103B500014D01B4B984211D01A4B98420ED01A4BDE
:103B600098420BD0194B984208D0194B984205D077
:103B7000184B984202D0184B984203D122F440725D
:103B8000CB681A4322F080034C6943EA04020260C6
:103B90008B68C3620B688362054B984202D0084B66
:103BA000984201D10B6903630123436110BD0000FA
:103BB000000001400004004000080040000C0040EC
:103BC0000004014000400140004401400048014021
:103BD00000180040001C00400020004030B501F0FB
:103BE0001F05012404FA05F3046A9C430462046A75
:103BF00001F01F0502FA05F52C43046230BD30B513
:103C00000C46816821F47F4142EA0325254329437C
:103C1000816030BD0A46816821F0700142F00703DF
:103C2000194381607047000030B5056A25F0010531
:103C30000562026A4368846924F0700424F0030476
:103C40000D682C4322F002028D682A43104DA842D1
:103C500000D103E00F4DA84206D100BF22F00802B8
:103C6000CD682A4322F00402094DA84202D0094D32
:103C7000A84207D123F4807323F400734D692B43CA
:103C80008D692B43436084614D684563026230BD9A
:103C9000000001400004014030B5056A25F0100520
:103CA0000562026A4368846924F4E04424F44074A1
:103CB0000D6844EA052422F020028D6842EA0512CC
:103CC000124DA84200D103E0114DA84207D100BF18
:103CD00022F08002CD6842EA051222F040020B4D2C
:103CE000A84202D00A4DA84209D123F4806323F4EC
:103CF00000634D6943EA85038D6943EA85034360A8
:103D000084614D688563026230BD0000000001409F
:103D10000004014030B5056A25F480750562026A29
:103D20004368C46924F0700424F003040D682C4334
:103D300022F400728D6842EA0522124DA84200D199
:103D400003E0114DA84207D100BF22F40062CD6804
:103D500042EA052222F480620A4DA84202D00A4DAE
:103D6000A84209D123F4805323F400534D6943EA58
:103D700005138D6943EA05134360C4614D68C5634B
:103D8000026230BD000001400004014030B5056A08
:103D900025F480550562036A4468C26922F4E04252
:103DA00022F440720D6842EA052223F400538D6824
:103DB00043EA0533084DA84202D0084DA84204D179
:103DC00024F480444D6944EA85144460C2614D681E
:103DD0000564036230BD00000000014000040140A2
:103DE00030B50B461446026A056A25F001050562E6
:103DF000816921F0F00141EA041122F00A021A431C
:103E00008161026230BD30B50B461446056A25F06B
:103E1000100505628169026A21F4704141EA0431AA
:103E200022F0A00242EA03128161026230BD70B545
:103E300006460025B46B20684069C0F3C01594F8AD
:103E40003D00212805D125B10020E084204600F066
:103E5000B4F820684069C0F3801594F83E00222829
:103E600005D125B10020E085204600F070F8206CD7
:103E700040F0100020642046FFF71FF970BD70B5B8
:103E80000546AC6B2868006800F48070002842D1B9
:103E9000E08500BF00BF21680C3151E8001F21F40C
:103EA000807021680C3141E80002002AF3D100BF84
:103EB00000BF00BF2168143151E8001F21F001004C
:103EC0002168143141E80002002AF3D100BF00BF8D
:103ED00000BF2168143151E8001F21F04000216823
:103EE000143141E80002002AF3D100BF202084F8F9
:103EF0003E00206B01280ED100BF00BF21680C31AD
:103F000051E8001F21F0100021680C3141E8000247
:103F1000002AF3D100BF206B012804D1A18D2046D7
:103F2000FFF7CAF802E02046FFF743FA70BD70B50C
:103F30000546AC6B206B012805D1A08D41082046B9
:103F4000FFF7BAF802E02046FFF734FA70BD00BF71
:103F500000BF02680C3252E8002F22F49071026810
:103F60000C3242E80013002BF3D100BF00BF00BFAA
:103F70000268143252E8002F22F001010268143264
:103F800042E80013002BF3D100BF016B01290ED1D1
:103F900000BF00BF02680C3252E8002F22F010016F
:103FA00002680C3242E80013002BF3D100BF20213D
:103FB00080F83E1000210163704700BF00BF026817
:103FC0000C3252E8002F22F0C00102680C3242E8A5
:103FD0000013002BF3D100BF202180F83D10704763
:103FE0002DE9F84F04462068006920F44050E1684C
:103FF0000843216808612169A06808436169084392
:10400000E169084300902068C06849F20C61884368
:10401000009908432168C8602068406920F4407016
:10402000A16908432168486176492068884203D025
:1040300075492068884203D1FEF74AFA814602E0BA
:10404000FEF736FA8146E069B0F5004F6CD10220E8
:104050006168A0FB015003461920A9FB00700146CE
:104060002A463846FCF780F96421B0FBF1F04FEAAC
:10407000001A02206168A0FB01510B461920A9FB20
:1040800000712A463846FCF76FF9834602206168C2
:10409000A0FB015003461920A9FB00712A463846AF
:1040A000FCF762F96421B0FBF1F000EBC00101EB19
:1040B0000010ABEB8000322101EBC0006421B0FBAB
:1040C000F1F000F0F8000AEB400A02206168A0FB62
:1040D000015003461920A9FB007001462A463846C4
:1040E000FCF742F9834602206168A0FB01500346B9
:1040F0001920A9FB00712A463846FCF735F96421DE
:10410000B0FBF1F000EBC00101EB0010ABEB800065
:10411000322101EBC0006421B0FBF1F000F0070098
:104120005044216888606AE004206168A0FB015067
:1041300003461920A9FB007001462A463846FCF7C1
:1041400013F9824604206168A0FB01500346192040
:10415000A9FB007001462A463846FCF705F96421A0
:10416000B0FBF1F000EBC00101EB0010AAEB800006
:10417000322101EB00106421B0FBF1F000F0F00AF5
:1041800004206168A0FB017003461920A9FB0051BF
:104190003A462846FCF7E8F86421B0FBF1F00AEB58
:1041A000001A04206168A0FB01510B461920A9FBED
:1041B00000712A463846FCF7D7F883460420616828
:1041C000A0FB015003461920A9FB007001462A46B6
:1041D0003846FCF7C9F86421B0FBF1F000EBC001F0
:1041E00001EB0010ABEB8000322101EB00106421E9
:1041F000B0FBF1F000F00F00504421688860BDE88A
:10420000F88F0000001001400014014077B581B024
:10421000044615460298A062A5850020206422204D
:1042200084F83E002948A16BC8632948A16B086443
:104230002848A16BC8640020A16B086502AE3268F3
:104240002368191D2B46A06BFDF72CFE00BF002034
:10425000009020680068009020684068009000BFCF
:1042600000BF00BF002084F83C0000BF00BF00BFBB
:1042700021680C3151E8001F41F4807021680C3135
:1042800041E80002002AF3D100BF00BF00BF21684F
:10429000143151E8001F41F001002168143141E858
:1042A0000002002AF3D100BF00BF00BF2168143113
:1042B00051E8001F41F040002168143141E800023C
:1042C000002AF3D100BF002004B070BD7F3E00087B
:1042D0002F3F00082F3E000810B5252231493248F3
:1042E000FFF746F82F48007F202837D12D48407F20
:1042F00020281AD12B48807F202805D12948C07F4B
:1043000030382A49C8824BE02648807F202847D091
:104310002448C07F30382349897F303901EB81013F
:1043200000EB41002149C8823AE01E48407F202826
:1043300036D01C48407F3038642110FB01F1194809
:10434000807F303800EB800001EB40011548C07FD2
:104350003038084400B21549C88221E01148007F76
:1043600020281DD00F48007F30384FF47A7110FBA1
:1043700001F10C48407F303800EBC00202EB001026
:1043800001EB80010748807F303800EB800001EBB3
:1043900040010448C07F3038084400B20349C88255
:1043A00010BD0000280600203C040020C8050020A5
:1043B00008B541480068006800F0200060B100BF07
:1043C000002000903C480068006800903A4800686F
:1043D0004068009000BF6EE03848006800F01000B0
:1043E000002868D000BF00200090334800680068B3
:1043F0000090314800684068009000BF00BF30481E
:104400000068006800F4002058BB2D480068006870
:1044100020F001002A4909680860294800684068BE
:10442000C0F12400274908802420254909684860F4
:1044300023480068006840F40020214909680860AA
:104440001F480068006840F001001D4909680860C5
:104450001C48008812282ED11B491C4801F062FA22
:1044600029E017480068006820F001001449096835
:104470000860134800684068C0F1240011490880B2
:1044800024200F49096848601148806A20F4002000
:104490000F4988620A480068006840F00100084936
:1044A0000968086007480088122804D106490748AF
:1044B000243001F037FA08BD800400200048004095
:1044C0006805002010000020C8050020E00500203D
:1044D0000060024000BFFEE702480068C0F302200F
:1044E000704700000CED00E010B5002804DB0A075F
:1044F000130E054A135406E00A07140E034A00F08F
:104500000F031B1FD45410BD00E400E018ED00E0C1
:1045100000B58BB001200990002007900120089081
:10452000002001900290039004900690059001A94C
:104530000C48FCF7E9FA0B48FDF7E7FA02210948B5
:10454000FCF721FA0E200A90069001A90648FCF714
:10455000DBFA0548FDF7D9FA02210348FCF713FA04
:104560000BB000BDA4030020CC030020002007E016
:10457000002100EB4002044B03EB82025181401CFE
:104580000828F5DB704700005006002000B5024601
:1045900001F0AAF900BD014671EE602AF0EE621A40
:1045A000B0EE602A30EE423A01208840401E02EE12
:1045B000900AF8EEE22A63EE222A82EEA13AFDEE9C
:1045C000C32A12EE900A704710B99FED7F0A704718
:1045D00090ED100A80ED110A90ED0F0A80ED100A9F
:1045E00000EE102AB8EEC00A80ED060A00EE101A9E
:1045F000B8EEC00A80ED070A531A00EE103AB8EE82
:10460000C00A80ED0F0A0378002B75D190ED010AE6
:10461000D0ED0F0A20EE200A80ED090A90ED0A0A7B
:10462000D0ED020A90ED0F1A00EE810A80ED0A0A21
:1046300090ED0D0A80ED0E0A90ED0C0A80ED0D0A4A
:1046400090ED0F0AD0ED100A30EE600A80ED0C0AF2
:1046500090ED030AD0ED0C0A20EE200A80ED0B0A43
:1046600090ED0A0AD0ED050AB4EEE00AF1EE10FA78
:1046700004DD90ED050A80ED0A0A10E090ED0A0ACB
:10468000D0ED050AF1EE600AB4EEE00AF1EE10FAA0
:1046900005D290ED050AB1EE400A80ED0A0A90EDD0
:1046A000090AD0ED0A0A30EE200AD0ED0B0A30EEEE
:1046B000200A80ED080A90ED080AD0ED040AB4EE55
:1046C000E00AF1EE10FA04DD90ED040A80ED080A2C
:1046D00076E090ED080AD0ED040AF1EE600AB4EE3F
:1046E000E00AF1EE10FA6BD290ED040AB1EE400A46
:1046F00080ED080A64E0FFE70378012B60D190EDBC
:104700000F0AD0ED100A30EE600AD0ED010A20EE5B
:10471000200A80ED090A90ED020AD0ED0F0A20EE82
:10472000200A80ED0A0A90ED0D0A80ED0E0A90ED48
:104730000C0A80ED0D0A90ED0F0AD0ED100AB0EED4
:10474000001A01EE600AD0ED110A30EE200A80ED69
:104750000C0A90ED030AD0ED0C0A20EE200A80ED41
:104760000B0A90ED090AD0ED0A0A30EE200AD0EDCE
:104770000B0A30EE200AD0ED080A30EE200A80ED58
:10478000080A90ED080AD0ED040AB4EEE00AF1EE52
:1047900010FA04DD90ED040A80ED080A10E090EDB7
:1047A000080AD0ED040AF1EE600AB4EEE00AF1EE78
:1047B00010FA05D290ED040AB1EE400A80ED080A25
:1047C00090ED080A03E700000000000000208E4979
:1047D00008708E4890ED000A084680ED010A8C486A
:1047E00090ED000A084680ED020A8A4890ED000A22
:1047F000084680ED030A884890ED000A084680EDDF
:10480000040A864890ED000A084680ED050A9FEDEF
:10481000840A80ED0E0A80ED0D0A80ED0C0A9FEDF2
:10482000800A80ED080A80ED0B0A80ED0A0A80ED0F
:10483000090A80ED110A80ED100A80ED0F0A0020B0
:1048400081F84800774890ED000A084680ED130A89
:10485000754890ED000A084680ED140A734890ED03
:10486000000A084680ED150A714890ED000A0846D6
:1048700080ED160A6F4890ED000A084680ED170A91
:104880009FED670A80ED200A80ED1F0A80ED1E0A69
:104890009FED630A80ED1A0A80ED1D0A80ED1C0A67
:1048A00080ED1B0A80ED230A80ED220A80ED210AAB
:1048B000002081F89000604890ED000A084680EDE5
:1048C000250A5E4890ED000A084680ED260A5C48FD
:1048D00090ED000A084680ED270A5A4890ED000A3C
:1048E000084680ED280A584890ED000A084680EDF9
:1048F000290A9FED4B0A80ED320A80ED310A80EDE6
:10490000300A9FED470A80ED2C0A80ED2F0A80EDDA
:104910002E0A80ED2D0A80ED350A80ED340A80EDF7
:10492000330A002081F86801484890ED000A0846E3
:1049300080ED5B0A464890ED000A084680ED5C0A6F
:10494000444890ED000A084680ED5D0A424890ED2B
:10495000000A084680ED5E0A404890ED000A0846CD
:1049600080ED5F0A9FED2E0A80ED680A80ED670AF0
:1049700080ED660A9FED2A0A80ED620A80ED650AE5
:1049800080ED640A80ED630A80ED6B0A80ED6A0AAF
:1049900080ED690A002081F8D800314890ED000AC6
:1049A000084680ED370A2F4890ED000A084680ED52
:1049B000380A2D4890ED000A084680ED390A2B4848
:1049C00090ED000A084680ED3A0A294890ED000A69
:1049D000084680ED3B0A9FED120A80ED440A80ED07
:1049E000430A80ED420A9FED0E0A80ED3E0A80EDFB
:1049F000410A80ED400A80ED3F0A80ED470A80EDD4
:104A0000460A80ED450A7047100800203C0000204F
:104A10004000002044000020480000204C000020FE
:104A2000000000005000002054000020580000202A
:104A30005C0000206000002064000020680000206E
:104A40006C0000207000002074000020A0000020F6
:104A5000A4000020A8000020AC000020B00000202E
:104A6000B4000020B8000020BC000020C0000020DE
:104A7000C400002008B54FF40070174908600020FA
:104A80008860C860082008611448808E000A1449B4
:104A90000870124890F8340048701048808D000A61
:104AA00088700E4890F82C00C8700C48008C000AE2
:104AB00008710A4890F8200048710848808F000A61
:104AC0008871064890F83C00C8716B460A46024956
:104AD0000448FBF76DFF08BDC009002090070020C7
:104AE000CD000020CC03002010B52DED0C8B8548A7
:104AF00040684188834801878068418881480186F1
:104B0000C06841887F480185006941887D48A0F8D8
:104B1000401090F82A0010B900217A484184794861
:104B200090F82A00032803D14FF43E617548418470
:104B3000744890F82A00042803D14FF220417148AC
:104B400041847048B0F92220B0F928106E48FFF770
:104B50003BFDBDEEC00A10EE100A00B269490884A0
:104B6000084690F8320010B900216648C1856548B2
:104B700090F83200012803D14FF43E616148C185AD
:104B8000604890F83200022803D14FF220415D487E
:104B9000C1855C48B0F92E20B0F930105A48483829
:104BA000FFF712FDBDEEC00A10EE100A01B2554823
:104BB000818590F83A0010B900215248C1865148C9
:104BC00090F83A00012803D14FF461714D48C18635
:104BD0004C4890F83A00022803D14FF67C414948EE
:104BE000C1864848B0F93620B0F9381046489038A8
:104BF000FFF7EAFCBDEEC00A10EE100A01B2414810
:104C0000818690F84200D8B93E4890ED190ABDEE71
:104C1000C00A10EE100A02B23A4890ED180ABDEE32
:104C2000C00A10EE100A01B23748D830FFF7CCFCAA
:104C3000BDEEC00A10EE100A01B23248A0F84410CE
:104C4000304890F84200012804D14FF4BE712D483D
:104C5000A0F844102B4890F84200022804D14FF6E7
:104C600084612848A0F844102648B0F94420B0F9DF
:104C7000401025484830FFF7A7FCBDEEC00A10EEF3
:104C8000100A01B21F4881870146096909884FF45B
:104C9000B47201FB02F001F02FFD9FED1C0B53ECF1
:104CA000102B01F07DFD9FED1B0B53EC102B01F041
:104CB000CBFB9FED1A0B53EC102B01F0C5FB41EC25
:104CC000190B1049096949894FF4B47211FB02F0BC
:104CD00001F012FD9FED0D0B53EC102B01F060FD68
:104CE0009FED0C0B53EC102B01F0AEFB53EC192B8A
:104CF00001F0F6FA01F0C2FA02490866BDEC0C8B2D
:104D000010BD000090070020A00800200000000057
:104D10000000F03F000000000000334000000000F1
:104D20000000C04010B586B000F0AAFA3149086012
:104D300000F0AAFA2F49C861FFF748FD002408E0F7
:104D4000204600F093FA2B49091D41F82400601C0D
:104D5000C4B2062CF4DB0021264880F82A1080F823
:104D6000321080F83A1080F842100020214981F872
:104D7000480081F849009FED200A084680ED1B0A93
:104D80009FED1D0A80ED140A9FED1B0A80ED130AAA
:104D900090ED180A80ED190A9FED170A80ED180AA8
:104DA00040F2DC5015490880FC20FF21029103915C
:104DB000CDE9041000910B460A46019102211048EA
:104DC000FBF7A6FD4FF44870FDF7B6F8FC20FF2175
:104DD00002910391CDE9041000910B460A4601911E
:104DE00004210748FBF794FD4FF44870FDF7A4F841
:104DF00006B010BD9007002000000000C800002091
:104E0000A403002010B50020F64981F848000846A8
:104E10000068C07A022807D108460068807A012815
:104E200002D1F149087002E00020EF490870EE4815
:104E3000007858BBEB480068C07A012821D1E948C6
:104E40000068807A03281CD1E6480068B0F90600A3
:104E5000002803DD0321E34880F82A10E1480068B8
:104E6000B0F90600002803DA0421DE4880F82A1091
:104E7000DC480068C08858BB0021DA4880F82A1056
:104E80002BE00021D74880F82A1026E0D54800689A
:104E9000808AB0F5805F1CD1D2480068B0F90E005E
:104EA000002803DA0321CF4880F82A10CD48006893
:104EB000B0F90E00002803DD0421CA4880F82A104A
:104EC000C8480068C08918B90021C64880F82A106F
:104ED00003E00021C34880F82A10C348007858BB7B
:104EE000C0480068C07A012821D1BE480068807A95
:104EF00002281CD1BB480068B0F90600002803DD79
:104F00000120B84981F84800B6480068B0F90600A9
:104F1000002803DA0220B34981F84800B14800684C
:104F2000C08820BB0020AF4981F8480029E000205C
:104F3000AC4981F8480024E0AA480068808AB0F5AE
:104F4000005F1AD1A7480068B0F90E00002804DA03
:104F50000120A44981F8480013E0A2480068B0F994
:104F60000E00002804DD02209E4981F8480008E078
:104F700000209C4981F8480003E00020994981F80D
:104F800048009948007858BB96480068C07A0128C4
:104F900021D194480068807A01281CD1914800688A
:104FA000B0F90600002803DD01208E4981F8490090
:104FB0008C480068B0F90600002803DA022089490D
:104FC00081F8490087480068C08820BB00208549D7
:104FD00081F8490029E00020824981F8490024E055
:104FE00080480068808AB0F5004F1AD17D4800687B
:104FF000B0F90E00002804DA01207A4981F849004E
:1050000013E078480068B0F90E00002804DD0220A3
:10501000744981F8490008E00020724981F849008C
:1050200003E000206F4981F849006F48007858BBC1
:105030006C480068C07A032821D16A480068807AE9
:1050400001281CD167480068B0F90600002803DD7C
:105050000121644880F8321062480068B0F9060007
:10506000002803DA02215F4880F832105D480068AA
:10507000C08818BB00215B4880F8321028E000216E
:10508000584880F8321023E056480068808A40284B
:105090001AD154480068B0F90E00002804DA012142
:1050A000504880F8321013E04E480068B0F90E0006
:1050B000002804DD02214B4880F8321008E000216E
:1050C000484880F8321003E00021464880F832104A
:1050D0004548007858BB43480068C07A022821D16F
:1050E00040480068807A03281CD13E480068B0F927
:1050F0000600002803DD01213A4880F83A103948BB
:105100000068B0F90600002803DA0221354880F86B
:105110003A1034480068C08820BB0021314880F82C
:105120003A1029E000212F4880F83A1024E02D4859
:105130000068808AB0F5806F1AD12A480068B0F9FB
:105140000E00002804DA0121264880F83A1013E006
:1051500024480068B0F90E00002804DD022121482F
:1051600080F83A1008E000211E4880F83A1003E069
:1051700000211C4880F83A10FBF7ACFA194890F867
:10518000421080F843101848007878BB1548006832
:10519000C07A032821D113480068807A02281CD1E4
:1051A00010480068B0F90600002803DD02210D4810
:1051B00080F842100B480068B0F90600002803DAB6
:1051C0000121084880F8421006480068C08848BBA2
:1051D0000021044880F842102EE00021014880F8A8
:1051E000421029E090070020CA000020FFE719487C
:1051F0000068808AB0F5004F1AD116480068B0F9EF
:105200000E00002804DA0121124880F8421013E051
:1052100010480068B0F90E00002804DD02210D4896
:1052200080F8421008E000210A4880F8421003E0AC
:105230000021084880F84210064890F9431090F980
:105240004200814204D0034890ED180A80ED190A0B
:1052500010BD000090070020FFF764FD05E0FFF798
:10526000D1FDFFF741FCFFF705FCF8E7014601EB34
:105270004100024A02EB8000704700005006002007
:1052800000487047C8050020004870471A000020F9
:10529000FCF776FFFEF7D2FBFEF7C4F9FEF71AF92A
:1052A000FEF75CF9FEF736FBFEF7A2FAFEF716FBF7
:1052B000FEF732F9FEF74AFB00F004FBFFF728F98E
:1052C000FFF754F90848FDF7B5FC00210648FDF743
:1052D0006DFE04210448FDF769FEFEF773F900F046
:1052E0000CF800BFFEE70000F40300200146002098
:1052F000842901D0CA1C1044704710B500F084FC0A
:10530000002010BD7FB504460D46606998B1A069C4
:1053100088B1B4F90800FFF7E9FF0646D4E90510A3
:10532000CDE9006102902B462269D4E9001000F01B
:1053300011FE039013E0B4F90800FFF7D7FF06460B
:1053400003A8CDE90060238A9AB22B46D4E9001065
:1053500000F0CEFD012802D0002004B070BD0398FB
:10536000FBE7000010B5044600F0A0FB23480068EE
:10537000401C224908602248006840B92048046067
:105380000846006801280DD100F03EF90AE01D48EA
:10539000006838B91A480068C06AE16A884201D8D2
:1053A0001748046018480068401C1749086094F8C2
:1053B0002C100120884015490968084313490860EA
:1053C000E16A01EB8101124A02EB8100211D00F02C
:1053D00061FB00F095FB0B48006868B10848006865
:1053E000C06AE16A884207D24FF0805009490860DC
:1053F000BFF34F8FBFF36F8F10BD0000F800002088
:10540000E800002004010020140100200001002019
:10541000CC0A002004ED00E010B516E000F046FBD9
:105420000C48C068C468201D00F003FB0A480068EF
:10543000401E0949086009480068401E0749086085
:1054400000F05EFB204600F00BF8044800680028DE
:10545000E4D110BD940B0020F8000020F4000020DF
:1054600010B5044694F8510030B9206B00F066FB8B
:10547000204600F063FB1AE094F85100012803D1A4
:10548000204600F05BFB12E094F85100022801D1A5
:10549000012000E0002050B900BF502080F31188A7
:1054A000BFF34F8FBFF36F8F00BF00BFFEE710BD8C
:1054B00030B54FF47053174800F007042CB1C01DED
:1054C00020F00700134C041B1B1B0246124C2260E9
:1054D0000024114D6C60D018083820F007000F4CE4
:1054E000206000240D4D2D686C600C4D2D682C60E3
:1054F0001146441A4C60094C24680C60084D4C68F5
:105500002C60084D4C682C604FF00044064D2C6018
:1055100030BD0000BC0B0020240100202C01002025
:1055200034010020300100204001002000BFFFF7BF
:1055300073FF064800680128F9D94FF080500449EC
:105540000860BFF34F8FBFF36F8FF0E7CC0A0020E6
:1055500004ED00E02DE9FF5F81460E469246DDE94D
:105560000E7B109CAAF10100216B01EB800828F052
:10557000070808F0070008B9012000E0002050B932
:1055800000BF502080F31188BFF34F8FBFF36F8FA0
:1055900000BF00BFFEE786B1002507E0715D04F1A2
:1055A00034004155705D00B902E06D1C102DF5D33B
:1055B00000BF00214320015502E0002084F83400A0
:1055C000072F00D30627E76267640020A064201D30
:1055D00000F05DFA04F1180000F059FA2461C7F1F7
:1055E0000700A06164620020E06484F8500049462E
:1055F0004046039A00F050F92060BBF1000F01D043
:10560000CBF80040BDE8FF9F10B5002407E004EB95
:1056100084010F4A02EB810000F02CFA641C072C75
:10562000F5D30C4800F026FA0B4800F023FA0B489B
:1056300000F020FA0A4800F01DFA0A4800F01AFAB1
:1056400004480949086004480849086010BD000082
:10565000CC0A0020580B00206C0B0020800B00208F
:10566000940B0020A80B0020EC000020F00000208C
:1056700010B50146164800E0006803688B42FBD372
:105680000246436813448B4204D143684C68234468
:10569000436001460A464B6813440468A34211D193
:1056A0000C4C03682468A34208D04B680468646803
:1056B00023444B6003681B680B6005E0054B1B68C7
:1056C0000B6001E003680B60884200D0016010BDF0
:1056D000240100202C0100200A490968096809B941
:1056E000012100E0002121B14FF0FF31064A116095
:1056F00006E004490968C968C868034A416811603E
:1057000070470000EC000020180100200E480068DF
:10571000401C08B9012000E0002050B900BF502013
:1057200080F31188BFF34F8FBFF36F8F00BF00BFAF
:10573000FEE700BF502080F31188BFF34F8FBFF307
:105740006F8F00BF00BFFEE7440100202DE9F0414C
:1057500004464FF0000800F0AFFA4948006808B965
:10576000FFF7A6FE474800682040002870D1D4B15A
:10577000083404F00700B0B104F00700C0F10800DD
:10578000044404F0070008B9012000E0002050B9EB
:1057900000BF502080F31188BFF34F8FBFF36F8F8E
:1057A00000BF00BFFEE7002C52D03748006884429B
:1057B0004ED8364E3046056801E02E462D686868A2
:1057C000A04202D228680028F7D12D4800688542FF
:1057D0003ED0306800F10808286830606868001B17
:1057E000102819D92F1907F0070008B9012000E087
:1057F000002050B900BF502080F31188BFF34F8FB5
:10580000BFF36F8F00BF00BFFEE76868001B7860C2
:105810006C603846FFF72CFF1B4968680968081A56
:10582000194908600846006819490968884203D286
:1058300015480068164908601249686809680843F5
:1058400068600020286013480068401C1149086007
:1058500000F092FC08F0070008B9012000E00020E9
:1058600050B900BF502080F31188BFF34F8FBFF3B2
:105870006F8F00BF00BFFEE74046BDE8F08100002B
:105880002C010020400100203001002024010020D4
:105890003401002038010020001F4FF080730360A6
:1058A000001F21F001030360001F054B0360143843
:1058B0000260001F6FF00203036020387047000091
:1058C0000D57000810B524220249A1F12400FEF76B
:1058D0005DF810BD04060020FFF7F4FF03E0FEF7BB
:1058E00067FDFEF7F9FCFAE70C4800880C490880D0
:1058F0000A48408848800948808888800748C088CE
:10590000C8800648008988820448C17A0448C17268
:105910000248807A0249887270470000A00A00207D
:10592000B20A002000B101B970470278437842EA18
:105930000322C2F30A020A804278D210837842EA34
:105940004312C2F30A024A8082789211C37842EA73
:105950008302037942EA8322C2F30A028A8002792F
:105960005210437942EAC312C2F30A02CA80427952
:10597000C2F301128A72427912119308CB728279B2
:10598000C37942EA032212B28A81027A437A42EA56
:10599000032213B201F10C02CB81827AC37A42EA6C
:1059A000032213B201F10C020B82037B8B74437B45
:1059B000CB74827BC37B42EA03228A82027C437CD3
:1059C00042EA032212B20A810A88A2F5806212B268
:1059D0000A804A88A2F5806212B24A808A88A2F5BB
:1059E000806212B28A80CA88A2F5806212B2CA802E
:1059F0000A89A2F5806212B20A8100BF94E7B0EE74
:105A0000401A30EEC10AF0EE401AB0EE412A00EE24
:105A1000100AB8EEC00A60EE212A01228A40521E06
:105A200000EE102AB8EEC03A82EE830A30EE020A87
:105A3000704701460A69D1E901309860D1E9010354
:105A400058605068884201D1886850600020086121
:105A50001068401E1060106870470000034B036020
:105A6000034B0B608023136070470000500100203F
:105A7000A401002000F1080141604FF0FF31816076
:105A800000F10801C160016100210160704700213F
:105A90000161704742684A6093688B6093685960FF
:105AA0009160086103685B1C0360704700BF502071
:105AB00080F31188BFF34F8FBFF36F8F00BF0E4885
:105AC0000068401C0C49086008460068012812D193
:105AD0000A480068C0B208B9012000E0002050B9AF
